{"contracts/ERC721_Enforced_Royalties.sol":{"ERC721_Enforced_Royalties":{"abi":[{"inputs":[{"internalType":"address","name":"initialOwner","type":"address"},{"internalType":"address","name":"initialTransferValidator","type":"address"},{"internalType":"address","name":"initialRoyaltyRecipient","type":"address"},{"internalType":"uint96","name":"royalties","type":"uint96"}],"stateMutability":"nonpayable","type":"constructor"},{"inputs":[{"internalType":"uint256","name":"numerator","type":"uint256"},{"internalType":"uint256","name":"denominator","type":"uint256"}],"name":"ERC2981InvalidDefaultRoyalty","type":"error"},{"inputs":[{"internalType":"address","name":"receiver","type":"address"}],"name":"ERC2981InvalidDefaultRoyaltyReceiver","type":"error"},{"inputs":[{"internalType":"uint256","name":"tokenId","type":"uint256"},{"internalType":"uint256","name":"numerator","type":"uint256"},{"internalType":"uint256","name":"denominator","type":"uint256"}],"name":"ERC2981InvalidTokenRoyalty","type":"error"},{"inputs":[{"internalType":"uint256","name":"tokenId","type":"uint256"},{"internalType":"address","name":"receiver","type":"address"}],"name":"ERC2981InvalidTokenRoyaltyReceiver","type":"error"},{"inputs":[],"name":"ERC721EnumerableForbiddenBatchMint","type":"error"},{"inputs":[{"internalType":"address","name":"sender","type":"address"},{"internalType":"uint256","name":"tokenId","type":"uint256"},{"internalType":"address","name":"owner","type":"address"}],"name":"ERC721IncorrectOwner","type":"error"},{"inputs":[{"internalType":"address","name":"operator","type":"address"},{"internalType":"uint256","name":"tokenId","type":"uint256"}],"name":"ERC721InsufficientApproval","type":"error"},{"inputs":[{"internalType":"address","name":"approver","type":"address"}],"name":"ERC721InvalidApprover","type":"error"},{"inputs":[{"internalType":"address","name":"operator","type":"address"}],"name":"ERC721InvalidOperator","type":"error"},{"inputs":[{"internalType":"address","name":"owner","type":"address"}],"name":"ERC721InvalidOwner","type":"error"},{"inputs":[{"internalType":"address","name":"receiver","type":"address"}],"name":"ERC721InvalidReceiver","type":"error"},{"inputs":[{"internalType":"address","name":"sender","type":"address"}],"name":"ERC721InvalidSender","type":"error"},{"inputs":[{"internalType":"uint256","name":"tokenId","type":"uint256"}],"name":"ERC721NonexistentToken","type":"error"},{"inputs":[{"internalType":"address","name":"owner","type":"address"},{"internalType":"uint256","name":"index","type":"uint256"}],"name":"ERC721OutOfBoundsIndex","type":"error"},{"inputs":[{"internalType":"address","name":"owner","type":"address"}],"name":"OwnableInvalidOwner","type":"error"},{"inputs":[{"internalType":"address","name":"account","type":"address"}],"name":"OwnableUnauthorizedAccount","type":"error"},{"anonymous":false,"inputs":[{"indexed":true,"internalType":"address","name":"owner","type":"address"},{"indexed":true,"internalType":"address","name":"approved","type":"address"},{"indexed":true,"internalType":"uint256","name":"tokenId","type":"uint256"}],"name":"Approval","type":"event"},{"anonymous":false,"inputs":[{"indexed":true,"internalType":"address","name":"owner","type":"address"},{"indexed":true,"internalType":"address","name":"operator","type":"address"},{"indexed":false,"internalType":"bool","name":"approved","type":"bool"}],"name":"ApprovalForAll","type":"event"},{"anonymous":false,"inputs":[{"indexed":false,"internalType":"uint256","name":"_fromTokenId","type":"uint256"},{"indexed":false,"internalType":"uint256","name":"_toTokenId","type":"uint256"}],"name":"BatchMetadataUpdate","type":"event"},{"anonymous":false,"inputs":[{"indexed":false,"internalType":"uint256","name":"_tokenId","type":"uint256"}],"name":"MetadataUpdate","type":"event"},{"anonymous":false,"inputs":[{"indexed":true,"internalType":"address","name":"previousOwner","type":"address"},{"indexed":true,"internalType":"address","name":"newOwner","type":"address"}],"name":"OwnershipTransferred","type":"event"},{"anonymous":false,"inputs":[{"indexed":true,"internalType":"address","name":"from","type":"address"},{"indexed":true,"internalType":"address","name":"to","type":"address"},{"indexed":true,"internalType":"uint256","name":"tokenId","type":"uint256"}],"name":"Transfer","type":"event"},{"anonymous":false,"inputs":[{"indexed":false,"internalType":"address","name":"oldValidator","type":"address"},{"indexed":false,"internalType":"address","name":"newValidator","type":"address"}],"name":"TransferValidatorUpdated","type":"event"},{"inputs":[{"internalType":"address","name":"to","type":"address"},{"internalType":"uint256","name":"tokenId","type":"uint256"}],"name":"approve","outputs":[],"stateMutability":"nonpayable","type":"function"},{"inputs":[{"internalType":"address","name":"owner","type":"address"}],"name":"balanceOf","outputs":[{"internalType":"uint256","name":"","type":"uint256"}],"stateMutability":"view","type":"function"},{"inputs":[{"internalType":"uint256","name":"tokenId","type":"uint256"}],"name":"getApproved","outputs":[{"internalType":"address","name":"","type":"address"}],"stateMutability":"view","type":"function"},{"inputs":[],"name":"getTransferValidationFunction","outputs":[{"internalType":"bytes4","name":"","type":"bytes4"},{"internalType":"bool","name":"","type":"bool"}],"stateMutability":"pure","type":"function"},{"inputs":[],"name":"getTransferValidator","outputs":[{"internalType":"address","name":"","type":"address"}],"stateMutability":"view","type":"function"},{"inputs":[{"internalType":"address","name":"owner","type":"address"},{"internalType":"address","name":"operator","type":"address"}],"name":"isApprovedForAll","outputs":[{"internalType":"bool","name":"","type":"bool"}],"stateMutability":"view","type":"function"},{"inputs":[],"name":"name","outputs":[{"internalType":"string","name":"","type":"string"}],"stateMutability":"view","type":"function"},{"inputs":[],"name":"owner","outputs":[{"internalType":"address","name":"","type":"address"}],"stateMutability":"view","type":"function"},{"inputs":[{"internalType":"uint256","name":"tokenId","type":"uint256"}],"name":"ownerOf","outputs":[{"internalType":"address","name":"","type":"address"}],"stateMutability":"view","type":"function"},{"inputs":[],"name":"renounceOwnership","outputs":[],"stateMutability":"nonpayable","type":"function"},{"inputs":[{"internalType":"uint256","name":"tokenId","type":"uint256"},{"internalType":"uint256","name":"salePrice","type":"uint256"}],"name":"royaltyInfo","outputs":[{"internalType":"address","name":"receiver","type":"address"},{"internalType":"uint256","name":"amount","type":"uint256"}],"stateMutability":"view","type":"function"},{"inputs":[{"internalType":"address","name":"to","type":"address"},{"internalType":"uint256","name":"tokenId","type":"uint256"},{"internalType":"string","name":"uri","type":"string"}],"name":"safeMint","outputs":[],"stateMutability":"nonpayable","type":"function"},{"inputs":[{"internalType":"address","name":"from","type":"address"},{"internalType":"address","name":"to","type":"address"},{"internalType":"uint256","name":"tokenId","type":"uint256"}],"name":"safeTransferFrom","outputs":[],"stateMutability":"nonpayable","type":"function"},{"inputs":[{"internalType":"address","name":"from","type":"address"},{"internalType":"address","name":"to","type":"address"},{"internalType":"uint256","name":"tokenId","type":"uint256"},{"internalType":"bytes","name":"data","type":"bytes"}],"name":"safeTransferFrom","outputs":[],"stateMutability":"nonpayable","type":"function"},{"inputs":[{"internalType":"address","name":"operator","type":"address"},{"internalType":"bool","name":"approved","type":"bool"}],"name":"setApprovalForAll","outputs":[],"stateMutability":"nonpayable","type":"function"},{"inputs":[{"internalType":"address","name":"validator","type":"address"}],"name":"setTransferValidator","outputs":[],"stateMutability":"nonpayable","type":"function"},{"inputs":[{"internalType":"bytes4","name":"interfaceId","type":"bytes4"}],"name":"supportsInterface","outputs":[{"internalType":"bool","name":"","type":"bool"}],"stateMutability":"view","type":"function"},{"inputs":[],"name":"symbol","outputs":[{"internalType":"string","name":"","type":"string"}],"stateMutability":"view","type":"function"},{"inputs":[{"internalType":"uint256","name":"index","type":"uint256"}],"name":"tokenByIndex","outputs":[{"internalType":"uint256","name":"","type":"uint256"}],"stateMutability":"view","type":"function"},{"inputs":[{"internalType":"address","name":"owner","type":"address"},{"internalType":"uint256","name":"index","type":"uint256"}],"name":"tokenOfOwnerByIndex","outputs":[{"internalType":"uint256","name":"","type":"uint256"}],"stateMutability":"view","type":"function"},{"inputs":[{"internalType":"uint256","name":"tokenId","type":"uint256"}],"name":"tokenURI","outputs":[{"internalType":"string","name":"","type":"string"}],"stateMutability":"view","type":"function"},{"inputs":[],"name":"totalSupply","outputs":[{"internalType":"uint256","name":"","type":"uint256"}],"stateMutability":"view","type":"function"},{"inputs":[{"internalType":"address","name":"from","type":"address"},{"internalType":"address","name":"to","type":"address"},{"internalType":"uint256","name":"tokenId","type":"uint256"}],"name":"transferFrom","outputs":[],"stateMutability":"nonpayable","type":"function"},{"inputs":[{"internalType":"address","name":"newOwner","type":"address"}],"name":"transferOwnership","outputs":[],"stateMutability":"nonpayable","type":"function"}],"evm":{"bytecode":{"linkReferences":{},"object":"608060405234801561001057600080fd5b50604051613a99380380613a99833981810160405281019061003291906104f6565b836040518060400160405280600781526020017f4d79546f6b656e000000000000000000000000000000000000000000000000008152506040518060400160405280600381526020017f4d544b000000000000000000000000000000000000000000000000000000000081525081600090816100ae91906107ad565b5080600190816100be91906107ad565b505050600073ffffffffffffffffffffffffffffffffffffffff168173ffffffffffffffffffffffffffffffffffffffff16036101335760006040517f1e4fbdf700000000000000000000000000000000000000000000000000000000815260040161012a919061088e565b60405180910390fd5b610142816101d760201b60201c565b5082600e60006101000a81548173ffffffffffffffffffffffffffffffffffffffff021916908373ffffffffffffffffffffffffffffffffffffffff160217905550610194828261029d60201b60201c565b7fcc5dc080ff977b3c3a211fa63ab74f90f658f5ba9d3236e92c8f59570f442aac6000846040516101c69291906108a9565b60405180910390a15050505061093b565b6000600d60009054906101000a900473ffffffffffffffffffffffffffffffffffffffff16905081600d60006101000a81548173ffffffffffffffffffffffffffffffffffffffff021916908373ffffffffffffffffffffffffffffffffffffffff1602179055508173ffffffffffffffffffffffffffffffffffffffff168173ffffffffffffffffffffffffffffffffffffffff167f8be0079c531659141344cd1fd0a4f28419497f9722a3daafe3b4186f6b6457e060405160405180910390a35050565b60006102ad61044560201b60201c565b6bffffffffffffffffffffffff16905080826bffffffffffffffffffffffff1611156103125781816040517f6f483d09000000000000000000000000000000000000000000000000000000008152600401610309929190610912565b60405180910390fd5b600073ffffffffffffffffffffffffffffffffffffffff168373ffffffffffffffffffffffffffffffffffffffff16036103845760006040517fb6d9900a00000000000000000000000000000000000000000000000000000000815260040161037b919061088e565b60405180910390fd5b60405180604001604052808473ffffffffffffffffffffffffffffffffffffffff168152602001836bffffffffffffffffffffffff16815250600b60008201518160000160006101000a81548173ffffffffffffffffffffffffffffffffffffffff021916908373ffffffffffffffffffffffffffffffffffffffff16021790555060208201518160000160146101000a8154816bffffffffffffffffffffffff02191690836bffffffffffffffffffffffff160217905550905050505050565b6000612710905090565b600080fd5b600073ffffffffffffffffffffffffffffffffffffffff82169050919050565b600061047f82610454565b9050919050565b61048f81610474565b811461049a57600080fd5b50565b6000815190506104ac81610486565b92915050565b60006bffffffffffffffffffffffff82169050919050565b6104d3816104b2565b81146104de57600080fd5b50565b6000815190506104f0816104ca565b92915050565b600080600080608085870312156105105761050f61044f565b5b600061051e8782880161049d565b945050602061052f8782880161049d565b93505060406105408782880161049d565b9250506060610551878288016104e1565b91505092959194509250565b600081519050919050565b7f4e487b7100000000000000000000000000000000000000000000000000000000600052604160045260246000fd5b7f4e487b7100000000000000000000000000000000000000000000000000000000600052602260045260246000fd5b600060028204905060018216806105de57607f821691505b6020821081036105f1576105f0610597565b5b50919050565b60008190508160005260206000209050919050565b60006020601f8301049050919050565b600082821b905092915050565b6000600883026106597fffffffffffffffffffffffffffffffffffffffffffffffffffffffffffffffff8261061c565b610663868361061c565b95508019841693508086168417925050509392505050565b6000819050919050565b6000819050919050565b60006106aa6106a56106a08461067b565b610685565b61067b565b9050919050565b6000819050919050565b6106c48361068f565b6106d86106d0826106b1565b848454610629565b825550505050565b600090565b6106ed6106e0565b6106f88184846106bb565b505050565b5b8181101561071c576107116000826106e5565b6001810190506106fe565b5050565b601f82111561076157610732816105f7565b61073b8461060c565b8101602085101561074a578190505b61075e6107568561060c565b8301826106fd565b50505b505050565b600082821c905092915050565b600061078460001984600802610766565b1980831691505092915050565b600061079d8383610773565b9150826002028217905092915050565b6107b68261055d565b67ffffffffffffffff8111156107cf576107ce610568565b5b6107d982546105c6565b6107e4828285610720565b600060209050601f8311600181146108175760008415610805578287015190505b61080f8582610791565b865550610877565b601f198416610825866105f7565b60005b8281101561084d57848901518255600182019150602085019450602081019050610828565b8683101561086a5784890151610866601f891682610773565b8355505b6001600288020188555050505b505050505050565b61088881610474565b82525050565b60006020820190506108a3600083018461087f565b92915050565b60006040820190506108be600083018561087f565b6108cb602083018461087f565b9392505050565b60006108ed6108e86108e3846104b2565b610685565b61067b565b9050919050565b6108fd816108d2565b82525050565b61090c8161067b565b82525050565b600060408201905061092760008301856108f4565b6109346020830184610903565b9392505050565b61314f8061094a6000396000f3fe608060405234801561001057600080fd5b50600436106101585760003560e01c80636352211e116100c3578063a9fc664e1161007c578063a9fc664e146103dd578063b88d4fde146103f9578063c87b56dd14610415578063cd279c7c14610445578063e985e9c514610461578063f2fde38b1461049157610158565b80636352211e1461031b57806370a082311461034b578063715018a61461037b5780638da5cb5b1461038557806395d89b41146103a3578063a22cb465146103c157610158565b806318160ddd1161011557806318160ddd1461023457806323b872dd146102525780632a55205a1461026e5780632f745c591461029f57806342842e0e146102cf5780634f6ccce7146102eb57610158565b806301ffc9a71461015d57806306fdde031461018d578063081812fc146101ab578063095ea7b3146101db578063098144d4146101f75780630d705df614610215575b600080fd5b61017760048036038101906101729190612436565b6104ad565b604051610184919061247e565b60405180910390f35b6101956104bf565b6040516101a29190612529565b60405180910390f35b6101c560048036038101906101c09190612581565b610551565b6040516101d291906125ef565b60405180910390f35b6101f560048036038101906101f09190612636565b61056d565b005b6101ff610583565b60405161020c91906125ef565b60405180910390f35b61021d6105ad565b60405161022b929190612685565b60405180910390f35b61023c6105db565b60405161024991906126bd565b60405180910390f35b61026c600480360381019061026791906126d8565b6105e8565b005b6102886004803603810190610283919061272b565b6106ea565b60405161029692919061276b565b60405180910390f35b6102b960048036038101906102b49190612636565b61081a565b6040516102c691906126bd565b60405180910390f35b6102e960048036038101906102e491906126d8565b6108c3565b005b61030560048036038101906103009190612581565b6108e3565b60405161031291906126bd565b60405180910390f35b61033560048036038101906103309190612581565b610959565b60405161034291906125ef565b60405180910390f35b61036560048036038101906103609190612794565b61096b565b60405161037291906126bd565b60405180910390f35b610383610a25565b005b61038d610a39565b60405161039a91906125ef565b60405180910390f35b6103ab610a63565b6040516103b89190612529565b60405180910390f35b6103db60048036038101906103d691906127ed565b610af5565b005b6103f760048036038101906103f29190612794565b610b0b565b005b610413600480360381019061040e9190612962565b610bb2565b005b61042f600480360381019061042a9190612581565b610bd7565b60405161043c9190612529565b60405180910390f35b61045f600480360381019061045a9190612a86565b610be9565b005b61047b60048036038101906104769190612af5565b610c0a565b604051610488919061247e565b60405180910390f35b6104ab60048036038101906104a69190612794565b610c9e565b005b60006104b882610d24565b9050919050565b6060600080546104ce90612b64565b80601f01602080910402602001604051908101604052809291908181526020018280546104fa90612b64565b80156105475780601f1061051c57610100808354040283529160200191610547565b820191906000526020600020905b81548152906001019060200180831161052a57829003601f168201915b5050505050905090565b600061055c82610d9e565b5061056682610e26565b9050919050565b61057f828261057a610e63565b610e6b565b5050565b6000600e60009054906101000a900473ffffffffffffffffffffffffffffffffffffffff16905090565b6000807fcaee23ea077851ee825819a64124f89235283956b811450bfef78adb3ab8b8d86001915091509091565b6000600880549050905090565b600073ffffffffffffffffffffffffffffffffffffffff168273ffffffffffffffffffffffffffffffffffffffff160361065a5760006040517f64a0ae9200000000000000000000000000000000000000000000000000000000815260040161065191906125ef565b60405180910390fd5b600061066e8383610669610e63565b610e7d565b90508373ffffffffffffffffffffffffffffffffffffffff168173ffffffffffffffffffffffffffffffffffffffff16146106e4578382826040517f64283d7b0000000000000000000000000000000000000000000000000000000081526004016106db93929190612b95565b60405180910390fd5b50505050565b6000806000600c6000868152602001908152602001600020905060008160000160009054906101000a900473ffffffffffffffffffffffffffffffffffffffff16905060008260000160149054906101000a90046bffffffffffffffffffffffff169050600073ffffffffffffffffffffffffffffffffffffffff168273ffffffffffffffffffffffffffffffffffffffff16036107cb57600b60000160009054906101000a900473ffffffffffffffffffffffffffffffffffffffff169150600b60000160149054906101000a90046bffffffffffffffffffffffff1690505b60006107d5610e93565b6bffffffffffffffffffffffff16826bffffffffffffffffffffffff16886107fd9190612bfb565b6108079190612c6c565b9050828195509550505050509250929050565b60006108258361096b565b821061086a5782826040517fa57d13dc00000000000000000000000000000000000000000000000000000000815260040161086192919061276b565b60405180910390fd5b600660008473ffffffffffffffffffffffffffffffffffffffff1673ffffffffffffffffffffffffffffffffffffffff168152602001908152602001600020600083815260200190815260200160002054905092915050565b6108de83838360405180602001604052806000815250610bb2565b505050565b60006108ed6105db565b8210610933576000826040517fa57d13dc00000000000000000000000000000000000000000000000000000000815260040161092a92919061276b565b60405180910390fd5b6008828154811061094757610946612c9d565b5b90600052602060002001549050919050565b600061096482610d9e565b9050919050565b60008073ffffffffffffffffffffffffffffffffffffffff168273ffffffffffffffffffffffffffffffffffffffff16036109de5760006040517f89c62b640000000000000000000000000000000000000000000000000000000081526004016109d591906125ef565b60405180910390fd5b600360008373ffffffffffffffffffffffffffffffffffffffff1673ffffffffffffffffffffffffffffffffffffffff168152602001908152602001600020549050919050565b610a2d610e9d565b610a376000610f24565b565b6000600d60009054906101000a900473ffffffffffffffffffffffffffffffffffffffff16905090565b606060018054610a7290612b64565b80601f0160208091040260200160405190810160405280929190818152602001828054610a9e90612b64565b8015610aeb5780601f10610ac057610100808354040283529160200191610aeb565b820191906000526020600020905b815481529060010190602001808311610ace57829003601f168201915b5050505050905090565b610b07610b00610e63565b8383610fea565b5050565b610b13610e9d565b7fcc5dc080ff977b3c3a211fa63ab74f90f658f5ba9d3236e92c8f59570f442aac600e60009054906101000a900473ffffffffffffffffffffffffffffffffffffffff1682604051610b66929190612ccc565b60405180910390a180600e60006101000a81548173ffffffffffffffffffffffffffffffffffffffff021916908373ffffffffffffffffffffffffffffffffffffffff16021790555050565b610bbd8484846105e8565b610bd1610bc8610e63565b85858585611159565b50505050565b6060610be28261130a565b9050919050565b610bf1610e9d565b610bfb838361141d565b610c05828261143b565b505050565b6000600560008473ffffffffffffffffffffffffffffffffffffffff1673ffffffffffffffffffffffffffffffffffffffff16815260200190815260200160002060008373ffffffffffffffffffffffffffffffffffffffff1673ffffffffffffffffffffffffffffffffffffffff16815260200190815260200160002060009054906101000a900460ff16905092915050565b610ca6610e9d565b600073ffffffffffffffffffffffffffffffffffffffff168173ffffffffffffffffffffffffffffffffffffffff1603610d185760006040517f1e4fbdf7000000000000000000000000000000000000000000000000000000008152600401610d0f91906125ef565b60405180910390fd5b610d2181610f24565b50565b60007f2a55205a000000000000000000000000000000000000000000000000000000007bffffffffffffffffffffffffffffffffffffffffffffffffffffffff1916827bffffffffffffffffffffffffffffffffffffffffffffffffffffffff19161480610d975750610d9682611497565b5b9050919050565b600080610daa836114f8565b9050600073ffffffffffffffffffffffffffffffffffffffff168173ffffffffffffffffffffffffffffffffffffffff1603610e1d57826040517f7e273289000000000000000000000000000000000000000000000000000000008152600401610e1491906126bd565b60405180910390fd5b80915050919050565b60006004600083815260200190815260200160002060009054906101000a900473ffffffffffffffffffffffffffffffffffffffff169050919050565b600033905090565b610e788383836001611535565b505050565b6000610e8a8484846116fa565b90509392505050565b6000612710905090565b610ea5610e63565b73ffffffffffffffffffffffffffffffffffffffff16610ec3610a39565b73ffffffffffffffffffffffffffffffffffffffff1614610f2257610ee6610e63565b6040517f118cdaa7000000000000000000000000000000000000000000000000000000008152600401610f1991906125ef565b60405180910390fd5b565b6000600d60009054906101000a900473ffffffffffffffffffffffffffffffffffffffff16905081600d60006101000a81548173ffffffffffffffffffffffffffffffffffffffff021916908373ffffffffffffffffffffffffffffffffffffffff1602179055508173ffffffffffffffffffffffffffffffffffffffff168173ffffffffffffffffffffffffffffffffffffffff167f8be0079c531659141344cd1fd0a4f28419497f9722a3daafe3b4186f6b6457e060405160405180910390a35050565b600073ffffffffffffffffffffffffffffffffffffffff168273ffffffffffffffffffffffffffffffffffffffff160361105b57816040517f5b08ba1800000000000000000000000000000000000000000000000000000000815260040161105291906125ef565b60405180910390fd5b80600560008573ffffffffffffffffffffffffffffffffffffffff1673ffffffffffffffffffffffffffffffffffffffff16815260200190815260200160002060008473ffffffffffffffffffffffffffffffffffffffff1673ffffffffffffffffffffffffffffffffffffffff16815260200190815260200160002060006101000a81548160ff0219169083151502179055508173ffffffffffffffffffffffffffffffffffffffff168373ffffffffffffffffffffffffffffffffffffffff167f17307eab39ab6107e8899845ad3d59bd9653f200f220920489ca2b5937696c318360405161114c919061247e565b60405180910390a3505050565b60008373ffffffffffffffffffffffffffffffffffffffff163b1115611303578273ffffffffffffffffffffffffffffffffffffffff1663150b7a02868685856040518563ffffffff1660e01b81526004016111b89493929190612d4a565b6020604051808303816000875af19250505080156111f457506040513d601f19601f820116820180604052508101906111f19190612dab565b60015b611278573d8060008114611224576040519150601f19603f3d011682016040523d82523d6000602084013e611229565b606091505b50600081510361127057836040517f64a0ae9200000000000000000000000000000000000000000000000000000000815260040161126791906125ef565b60405180910390fd5b805181602001fd5b63150b7a0260e01b7bffffffffffffffffffffffffffffffffffffffffffffffffffffffff1916817bffffffffffffffffffffffffffffffffffffffffffffffffffffffff19161461130157836040517f64a0ae920000000000000000000000000000000000000000000000000000000081526004016112f891906125ef565b60405180910390fd5b505b5050505050565b606061131582610d9e565b506000600a6000848152602001908152602001600020805461133690612b64565b80601f016020809104026020016040519081016040528092919081815260200182805461136290612b64565b80156113af5780601f10611384576101008083540402835291602001916113af565b820191906000526020600020905b81548152906001019060200180831161139257829003601f168201915b5050505050905060006113c0611817565b905060008151036113d5578192505050611418565b60008251111561140a5780826040516020016113f2929190612e14565b60405160208183030381529060405292505050611418565b6114138461182e565b925050505b919050565b611437828260405180602001604052806000815250611897565b5050565b80600a6000848152602001908152602001600020908161145b9190612fe4565b507ff8e1a15aba9398e019f0b49df1a4fde98ee17ae345cb5f6b5e2c27f5033e8ce78260405161148b91906126bd565b60405180910390a15050565b6000634906490660e01b7bffffffffffffffffffffffffffffffffffffffffffffffffffffffff1916827bffffffffffffffffffffffffffffffffffffffffffffffffffffffff191614806114f157506114f0826118bb565b5b9050919050565b60006002600083815260200190815260200160002060009054906101000a900473ffffffffffffffffffffffffffffffffffffffff169050919050565b808061156e5750600073ffffffffffffffffffffffffffffffffffffffff168273ffffffffffffffffffffffffffffffffffffffff1614155b156116a257600061157e84610d9e565b9050600073ffffffffffffffffffffffffffffffffffffffff168373ffffffffffffffffffffffffffffffffffffffff16141580156115e957508273ffffffffffffffffffffffffffffffffffffffff168173ffffffffffffffffffffffffffffffffffffffff1614155b80156115fc57506115fa8184610c0a565b155b1561163e57826040517fa9fbf51f00000000000000000000000000000000000000000000000000000000815260040161163591906125ef565b60405180910390fd5b81156116a057838573ffffffffffffffffffffffffffffffffffffffff168273ffffffffffffffffffffffffffffffffffffffff167f8c5be1e5ebec7d5bd14f71427d1e84f3dd0314c0f7b2291e5b200ac8c7c3b92560405160405180910390a45b505b836004600085815260200190815260200160002060006101000a81548173ffffffffffffffffffffffffffffffffffffffff021916908373ffffffffffffffffffffffffffffffffffffffff16021790555050505050565b600080611708858585611935565b9050600073ffffffffffffffffffffffffffffffffffffffff168173ffffffffffffffffffffffffffffffffffffffff160361174c5761174784611b4f565b61178b565b8473ffffffffffffffffffffffffffffffffffffffff168173ffffffffffffffffffffffffffffffffffffffff161461178a576117898185611b98565b5b5b600073ffffffffffffffffffffffffffffffffffffffff168573ffffffffffffffffffffffffffffffffffffffff16036117cd576117c884611c83565b61180c565b8473ffffffffffffffffffffffffffffffffffffffff168173ffffffffffffffffffffffffffffffffffffffff161461180b5761180a8585611d54565b5b5b809150509392505050565b606060405180602001604052806000815250905090565b606061183982610d9e565b506000611844611817565b90506000815111611864576040518060200160405280600081525061188f565b8061186e84611ddf565b60405160200161187f929190612e14565b6040516020818303038152906040525b915050919050565b6118a18383611ead565b6118b66118ac610e63565b6000858585611159565b505050565b60007f780e9d63000000000000000000000000000000000000000000000000000000007bffffffffffffffffffffffffffffffffffffffffffffffffffffffff1916827bffffffffffffffffffffffffffffffffffffffffffffffffffffffff1916148061192e575061192d82611fa6565b5b9050919050565b600080611941846114f8565b9050600073ffffffffffffffffffffffffffffffffffffffff168373ffffffffffffffffffffffffffffffffffffffff161461198357611982818486612088565b5b600073ffffffffffffffffffffffffffffffffffffffff168173ffffffffffffffffffffffffffffffffffffffff1614611a14576119c5600085600080611535565b6001600360008373ffffffffffffffffffffffffffffffffffffffff1673ffffffffffffffffffffffffffffffffffffffff168152602001908152602001600020600082825403925050819055505b600073ffffffffffffffffffffffffffffffffffffffff168573ffffffffffffffffffffffffffffffffffffffff1614611a97576001600360008773ffffffffffffffffffffffffffffffffffffffff1673ffffffffffffffffffffffffffffffffffffffff168152602001908152602001600020600082825401925050819055505b846002600086815260200190815260200160002060006101000a81548173ffffffffffffffffffffffffffffffffffffffff021916908373ffffffffffffffffffffffffffffffffffffffff160217905550838573ffffffffffffffffffffffffffffffffffffffff168273ffffffffffffffffffffffffffffffffffffffff167fddf252ad1be2c89b69c2b068fc378daa952ba7f163c4a11628f55a4df523b3ef60405160405180910390a4809150509392505050565b6008805490506009600083815260200190815260200160002081905550600881908060018154018082558091505060019003906000526020600020016000909190919091505550565b6000611ba38361096b565b90506000600760008481526020019081526020016000205490506000600660008673ffffffffffffffffffffffffffffffffffffffff1673ffffffffffffffffffffffffffffffffffffffff1681526020019081526020016000209050828214611c4f5760008160008581526020019081526020016000205490508082600085815260200190815260200160002081905550826007600083815260200190815260200160002081905550505b6007600085815260200190815260200160002060009055806000848152602001908152602001600020600090555050505050565b60006001600880549050611c9791906130b6565b9050600060096000848152602001908152602001600020549050600060088381548110611cc757611cc6612c9d565b5b906000526020600020015490508060088381548110611ce957611ce8612c9d565b5b906000526020600020018190555081600960008381526020019081526020016000208190555060096000858152602001908152602001600020600090556008805480611d3857611d376130ea565b5b6001900381819060005260206000200160009055905550505050565b60006001611d618461096b565b611d6b91906130b6565b905081600660008573ffffffffffffffffffffffffffffffffffffffff1673ffffffffffffffffffffffffffffffffffffffff168152602001908152602001600020600083815260200190815260200160002081905550806007600084815260200190815260200160002081905550505050565b606060006001611dee8461214c565b01905060008167ffffffffffffffff811115611e0d57611e0c612837565b5b6040519080825280601f01601f191660200182016040528015611e3f5781602001600182028036833780820191505090505b509050600082602001820190505b600115611ea2578080600190039150507f3031323334353637383961626364656600000000000000000000000000000000600a86061a8153600a8581611e9657611e95612c3d565b5b04945060008503611e4d575b819350505050919050565b600073ffffffffffffffffffffffffffffffffffffffff168273ffffffffffffffffffffffffffffffffffffffff1603611f1f5760006040517f64a0ae92000000000000000000000000000000000000000000000000000000008152600401611f1691906125ef565b60405180910390fd5b6000611f2d83836000610e7d565b9050600073ffffffffffffffffffffffffffffffffffffffff168173ffffffffffffffffffffffffffffffffffffffff1614611fa15760006040517f73c6ac6e000000000000000000000000000000000000000000000000000000008152600401611f9891906125ef565b60405180910390fd5b505050565b60007f80ac58cd000000000000000000000000000000000000000000000000000000007bffffffffffffffffffffffffffffffffffffffffffffffffffffffff1916827bffffffffffffffffffffffffffffffffffffffffffffffffffffffff1916148061207157507f5b5e139f000000000000000000000000000000000000000000000000000000007bffffffffffffffffffffffffffffffffffffffffffffffffffffffff1916827bffffffffffffffffffffffffffffffffffffffffffffffffffffffff1916145b8061208157506120808261229f565b5b9050919050565b612093838383612309565b61214757600073ffffffffffffffffffffffffffffffffffffffff168373ffffffffffffffffffffffffffffffffffffffff160361210857806040517f7e2732890000000000000000000000000000000000000000000000000000000081526004016120ff91906126bd565b60405180910390fd5b81816040517f177e802f00000000000000000000000000000000000000000000000000000000815260040161213e92919061276b565b60405180910390fd5b505050565b600080600090507a184f03e93ff9f4daa797ed6e38ed64bf6a1f01000000000000000083106121aa577a184f03e93ff9f4daa797ed6e38ed64bf6a1f01000000000000000083816121a05761219f612c3d565b5b0492506040810190505b6d04ee2d6d415b85acef810000000083106121e7576d04ee2d6d415b85acef810000000083816121dd576121dc612c3d565b5b0492506020810190505b662386f26fc10000831061221657662386f26fc10000838161220c5761220b612c3d565b5b0492506010810190505b6305f5e100831061223f576305f5e100838161223557612234612c3d565b5b0492506008810190505b612710831061226457612710838161225a57612259612c3d565b5b0492506004810190505b60648310612287576064838161227d5761227c612c3d565b5b0492506002810190505b600a8310612296576001810190505b80915050919050565b60007f01ffc9a7000000000000000000000000000000000000000000000000000000007bffffffffffffffffffffffffffffffffffffffffffffffffffffffff1916827bffffffffffffffffffffffffffffffffffffffffffffffffffffffff1916149050919050565b60008073ffffffffffffffffffffffffffffffffffffffff168373ffffffffffffffffffffffffffffffffffffffff16141580156123c157508273ffffffffffffffffffffffffffffffffffffffff168473ffffffffffffffffffffffffffffffffffffffff16148061238257506123818484610c0a565b5b806123c057508273ffffffffffffffffffffffffffffffffffffffff166123a883610e26565b73ffffffffffffffffffffffffffffffffffffffff16145b5b90509392505050565b6000604051905090565b600080fd5b600080fd5b60007fffffffff0000000000000000000000000000000000000000000000000000000082169050919050565b612413816123de565b811461241e57600080fd5b50565b6000813590506124308161240a565b92915050565b60006020828403121561244c5761244b6123d4565b5b600061245a84828501612421565b91505092915050565b60008115159050919050565b61247881612463565b82525050565b6000602082019050612493600083018461246f565b92915050565b600081519050919050565b600082825260208201905092915050565b60005b838110156124d35780820151818401526020810190506124b8565b60008484015250505050565b6000601f19601f8301169050919050565b60006124fb82612499565b61250581856124a4565b93506125158185602086016124b5565b61251e816124df565b840191505092915050565b6000602082019050818103600083015261254381846124f0565b905092915050565b6000819050919050565b61255e8161254b565b811461256957600080fd5b50565b60008135905061257b81612555565b92915050565b600060208284031215612597576125966123d4565b5b60006125a58482850161256c565b91505092915050565b600073ffffffffffffffffffffffffffffffffffffffff82169050919050565b60006125d9826125ae565b9050919050565b6125e9816125ce565b82525050565b600060208201905061260460008301846125e0565b92915050565b612613816125ce565b811461261e57600080fd5b50565b6000813590506126308161260a565b92915050565b6000806040838503121561264d5761264c6123d4565b5b600061265b85828601612621565b925050602061266c8582860161256c565b9150509250929050565b61267f816123de565b82525050565b600060408201905061269a6000830185612676565b6126a7602083018461246f565b9392505050565b6126b78161254b565b82525050565b60006020820190506126d260008301846126ae565b92915050565b6000806000606084860312156126f1576126f06123d4565b5b60006126ff86828701612621565b935050602061271086828701612621565b92505060406127218682870161256c565b9150509250925092565b60008060408385031215612742576127416123d4565b5b60006127508582860161256c565b92505060206127618582860161256c565b9150509250929050565b600060408201905061278060008301856125e0565b61278d60208301846126ae565b9392505050565b6000602082840312156127aa576127a96123d4565b5b60006127b884828501612621565b91505092915050565b6127ca81612463565b81146127d557600080fd5b50565b6000813590506127e7816127c1565b92915050565b60008060408385031215612804576128036123d4565b5b600061281285828601612621565b9250506020612823858286016127d8565b9150509250929050565b600080fd5b600080fd5b7f4e487b7100000000000000000000000000000000000000000000000000000000600052604160045260246000fd5b61286f826124df565b810181811067ffffffffffffffff8211171561288e5761288d612837565b5b80604052505050565b60006128a16123ca565b90506128ad8282612866565b919050565b600067ffffffffffffffff8211156128cd576128cc612837565b5b6128d6826124df565b9050602081019050919050565b82818337600083830152505050565b6000612905612900846128b2565b612897565b90508281526020810184848401111561292157612920612832565b5b61292c8482856128e3565b509392505050565b600082601f8301126129495761294861282d565b5b81356129598482602086016128f2565b91505092915050565b6000806000806080858703121561297c5761297b6123d4565b5b600061298a87828801612621565b945050602061299b87828801612621565b93505060406129ac8782880161256c565b925050606085013567ffffffffffffffff8111156129cd576129cc6123d9565b5b6129d987828801612934565b91505092959194509250565b600067ffffffffffffffff821115612a00576129ff612837565b5b612a09826124df565b9050602081019050919050565b6000612a29612a24846129e5565b612897565b905082815260208101848484011115612a4557612a44612832565b5b612a508482856128e3565b509392505050565b600082601f830112612a6d57612a6c61282d565b5b8135612a7d848260208601612a16565b91505092915050565b600080600060608486031215612a9f57612a9e6123d4565b5b6000612aad86828701612621565b9350506020612abe8682870161256c565b925050604084013567ffffffffffffffff811115612adf57612ade6123d9565b5b612aeb86828701612a58565b9150509250925092565b60008060408385031215612b0c57612b0b6123d4565b5b6000612b1a85828601612621565b9250506020612b2b85828601612621565b9150509250929050565b7f4e487b7100000000000000000000000000000000000000000000000000000000600052602260045260246000fd5b60006002820490506001821680612b7c57607f821691505b602082108103612b8f57612b8e612b35565b5b50919050565b6000606082019050612baa60008301866125e0565b612bb760208301856126ae565b612bc460408301846125e0565b949350505050565b7f4e487b7100000000000000000000000000000000000000000000000000000000600052601160045260246000fd5b6000612c068261254b565b9150612c118361254b565b9250828202612c1f8161254b565b91508282048414831517612c3657612c35612bcc565b5b5092915050565b7f4e487b7100000000000000000000000000000000000000000000000000000000600052601260045260246000fd5b6000612c778261254b565b9150612c828361254b565b925082612c9257612c91612c3d565b5b828204905092915050565b7f4e487b7100000000000000000000000000000000000000000000000000000000600052603260045260246000fd5b6000604082019050612ce160008301856125e0565b612cee60208301846125e0565b9392505050565b600081519050919050565b600082825260208201905092915050565b6000612d1c82612cf5565b612d268185612d00565b9350612d368185602086016124b5565b612d3f816124df565b840191505092915050565b6000608082019050612d5f60008301876125e0565b612d6c60208301866125e0565b612d7960408301856126ae565b8181036060830152612d8b8184612d11565b905095945050505050565b600081519050612da58161240a565b92915050565b600060208284031215612dc157612dc06123d4565b5b6000612dcf84828501612d96565b91505092915050565b600081905092915050565b6000612dee82612499565b612df88185612dd8565b9350612e088185602086016124b5565b80840191505092915050565b6000612e208285612de3565b9150612e2c8284612de3565b91508190509392505050565b60008190508160005260206000209050919050565b60006020601f8301049050919050565b600082821b905092915050565b600060088302612e9a7fffffffffffffffffffffffffffffffffffffffffffffffffffffffffffffffff82612e5d565b612ea48683612e5d565b95508019841693508086168417925050509392505050565b6000819050919050565b6000612ee1612edc612ed78461254b565b612ebc565b61254b565b9050919050565b6000819050919050565b612efb83612ec6565b612f0f612f0782612ee8565b848454612e6a565b825550505050565b600090565b612f24612f17565b612f2f818484612ef2565b505050565b5b81811015612f5357612f48600082612f1c565b600181019050612f35565b5050565b601f821115612f9857612f6981612e38565b612f7284612e4d565b81016020851015612f81578190505b612f95612f8d85612e4d565b830182612f34565b50505b505050565b600082821c905092915050565b6000612fbb60001984600802612f9d565b1980831691505092915050565b6000612fd48383612faa565b9150826002028217905092915050565b612fed82612499565b67ffffffffffffffff81111561300657613005612837565b5b6130108254612b64565b61301b828285612f57565b600060209050601f83116001811461304e576000841561303c578287015190505b6130468582612fc8565b8655506130ae565b601f19841661305c86612e38565b60005b828110156130845784890151825560018201915060208501945060208101905061305f565b868310156130a1578489015161309d601f891682612faa565b8355505b6001600288020188555050505b505050505050565b60006130c18261254b565b91506130cc8361254b565b92508282039050818111156130e4576130e3612bcc565b5b92915050565b7f4e487b7100000000000000000000000000000000000000000000000000000000600052603160045260246000fdfea264697066735822122063470508b26a9d7f9c343ef9e0270043c3a1db54a8d275d2fc6c8a4d60b933de64736f6c634300081b0033","opcodes":"PUSH1 0x80 PUSH1 0x40 MSTORE CALLVALUE DUP1 ISZERO PUSH2 0x10 JUMPI PUSH1 0x0 DUP1 REVERT JUMPDEST POP PUSH1 0x40 MLOAD PUSH2 0x3A99 CODESIZE SUB DUP1 PUSH2 0x3A99 DUP4 CODECOPY DUP2 DUP2 ADD PUSH1 0x40 MSTORE DUP2 ADD SWAP1 PUSH2 0x32 SWAP2 SWAP1 PUSH2 0x4F6 JUMP JUMPDEST DUP4 PUSH1 0x40 MLOAD DUP1 PUSH1 0x40 ADD PUSH1 0x40 MSTORE DUP1 PUSH1 0x7 DUP2 MSTORE PUSH1 0x20 ADD PUSH32 0x4D79546F6B656E00000000000000000000000000000000000000000000000000 DUP2 MSTORE POP PUSH1 0x40 MLOAD DUP1 PUSH1 0x40 ADD PUSH1 0x40 MSTORE DUP1 PUSH1 0x3 DUP2 MSTORE PUSH1 0x20 ADD PUSH32 0x4D544B0000000000000000000000000000000000000000000000000000000000 DUP2 MSTORE POP DUP2 PUSH1 0x0 SWAP1 DUP2 PUSH2 0xAE SWAP2 SWAP1 PUSH2 0x7AD JUMP JUMPDEST POP DUP1 PUSH1 0x1 SWAP1 DUP2 PUSH2 0xBE SWAP2 SWAP1 PUSH2 0x7AD JUMP JUMPDEST POP POP POP PUSH1 0x0 PUSH20 0xFFFFFFFFFFFFFFFFFFFFFFFFFFFFFFFFFFFFFFFF AND DUP2 PUSH20 0xFFFFFFFFFFFFFFFFFFFFFFFFFFFFFFFFFFFFFFFF AND SUB PUSH2 0x133 JUMPI PUSH1 0x0 PUSH1 0x40 MLOAD PUSH32 0x1E4FBDF700000000000000000000000000000000000000000000000000000000 DUP2 MSTORE PUSH1 0x4 ADD PUSH2 0x12A SWAP2 SWAP1 PUSH2 0x88E JUMP JUMPDEST PUSH1 0x40 MLOAD DUP1 SWAP2 SUB SWAP1 REVERT JUMPDEST PUSH2 0x142 DUP2 PUSH2 0x1D7 PUSH1 0x20 SHL PUSH1 0x20 SHR JUMP JUMPDEST POP DUP3 PUSH1 0xE PUSH1 0x0 PUSH2 0x100 EXP DUP2 SLOAD DUP2 PUSH20 0xFFFFFFFFFFFFFFFFFFFFFFFFFFFFFFFFFFFFFFFF MUL NOT AND SWAP1 DUP4 PUSH20 0xFFFFFFFFFFFFFFFFFFFFFFFFFFFFFFFFFFFFFFFF AND MUL OR SWAP1 SSTORE POP PUSH2 0x194 DUP3 DUP3 PUSH2 0x29D PUSH1 0x20 SHL PUSH1 0x20 SHR JUMP JUMPDEST PUSH32 0xCC5DC080FF977B3C3A211FA63AB74F90F658F5BA9D3236E92C8F59570F442AAC PUSH1 0x0 DUP5 PUSH1 0x40 MLOAD PUSH2 0x1C6 SWAP3 SWAP2 SWAP1 PUSH2 0x8A9 JUMP JUMPDEST PUSH1 0x40 MLOAD DUP1 SWAP2 SUB SWAP1 LOG1 POP POP POP POP PUSH2 0x93B JUMP JUMPDEST PUSH1 0x0 PUSH1 0xD PUSH1 0x0 SWAP1 SLOAD SWAP1 PUSH2 0x100 EXP SWAP1 DIV PUSH20 0xFFFFFFFFFFFFFFFFFFFFFFFFFFFFFFFFFFFFFFFF AND SWAP1 POP DUP2 PUSH1 0xD PUSH1 0x0 PUSH2 0x100 EXP DUP2 SLOAD DUP2 PUSH20 0xFFFFFFFFFFFFFFFFFFFFFFFFFFFFFFFFFFFFFFFF MUL NOT AND SWAP1 DUP4 PUSH20 0xFFFFFFFFFFFFFFFFFFFFFFFFFFFFFFFFFFFFFFFF AND MUL OR SWAP1 SSTORE POP DUP2 PUSH20 0xFFFFFFFFFFFFFFFFFFFFFFFFFFFFFFFFFFFFFFFF AND DUP2 PUSH20 0xFFFFFFFFFFFFFFFFFFFFFFFFFFFFFFFFFFFFFFFF AND PUSH32 0x8BE0079C531659141344CD1FD0A4F28419497F9722A3DAAFE3B4186F6B6457E0 PUSH1 0x40 MLOAD PUSH1 0x40 MLOAD DUP1 SWAP2 SUB SWAP1 LOG3 POP POP JUMP JUMPDEST PUSH1 0x0 PUSH2 0x2AD PUSH2 0x445 PUSH1 0x20 SHL PUSH1 0x20 SHR JUMP JUMPDEST PUSH12 0xFFFFFFFFFFFFFFFFFFFFFFFF AND SWAP1 POP DUP1 DUP3 PUSH12 0xFFFFFFFFFFFFFFFFFFFFFFFF AND GT ISZERO PUSH2 0x312 JUMPI DUP2 DUP2 PUSH1 0x40 MLOAD PUSH32 0x6F483D0900000000000000000000000000000000000000000000000000000000 DUP2 MSTORE PUSH1 0x4 ADD PUSH2 0x309 SWAP3 SWAP2 SWAP1 PUSH2 0x912 JUMP JUMPDEST PUSH1 0x40 MLOAD DUP1 SWAP2 SUB SWAP1 REVERT JUMPDEST PUSH1 0x0 PUSH20 0xFFFFFFFFFFFFFFFFFFFFFFFFFFFFFFFFFFFFFFFF AND DUP4 PUSH20 0xFFFFFFFFFFFFFFFFFFFFFFFFFFFFFFFFFFFFFFFF AND SUB PUSH2 0x384 JUMPI PUSH1 0x0 PUSH1 0x40 MLOAD PUSH32 0xB6D9900A00000000000000000000000000000000000000000000000000000000 DUP2 MSTORE PUSH1 0x4 ADD PUSH2 0x37B SWAP2 SWAP1 PUSH2 0x88E JUMP JUMPDEST PUSH1 0x40 MLOAD DUP1 SWAP2 SUB SWAP1 REVERT JUMPDEST PUSH1 0x40 MLOAD DUP1 PUSH1 0x40 ADD PUSH1 0x40 MSTORE DUP1 DUP5 PUSH20 0xFFFFFFFFFFFFFFFFFFFFFFFFFFFFFFFFFFFFFFFF AND DUP2 MSTORE PUSH1 0x20 ADD DUP4 PUSH12 0xFFFFFFFFFFFFFFFFFFFFFFFF AND DUP2 MSTORE POP PUSH1 0xB PUSH1 0x0 DUP3 ADD MLOAD DUP2 PUSH1 0x0 ADD PUSH1 0x0 PUSH2 0x100 EXP DUP2 SLOAD DUP2 PUSH20 0xFFFFFFFFFFFFFFFFFFFFFFFFFFFFFFFFFFFFFFFF MUL NOT AND SWAP1 DUP4 PUSH20 0xFFFFFFFFFFFFFFFFFFFFFFFFFFFFFFFFFFFFFFFF AND MUL OR SWAP1 SSTORE POP PUSH1 0x20 DUP3 ADD MLOAD DUP2 PUSH1 0x0 ADD PUSH1 0x14 PUSH2 0x100 EXP DUP2 SLOAD DUP2 PUSH12 0xFFFFFFFFFFFFFFFFFFFFFFFF MUL NOT AND SWAP1 DUP4 PUSH12 0xFFFFFFFFFFFFFFFFFFFFFFFF AND MUL OR SWAP1 SSTORE POP SWAP1 POP POP POP POP POP JUMP JUMPDEST PUSH1 0x0 PUSH2 0x2710 SWAP1 POP SWAP1 JUMP JUMPDEST PUSH1 0x0 DUP1 REVERT JUMPDEST PUSH1 0x0 PUSH20 0xFFFFFFFFFFFFFFFFFFFFFFFFFFFFFFFFFFFFFFFF DUP3 AND SWAP1 POP SWAP2 SWAP1 POP JUMP JUMPDEST PUSH1 0x0 PUSH2 0x47F DUP3 PUSH2 0x454 JUMP JUMPDEST SWAP1 POP SWAP2 SWAP1 POP JUMP JUMPDEST PUSH2 0x48F DUP2 PUSH2 0x474 JUMP JUMPDEST DUP2 EQ PUSH2 0x49A JUMPI PUSH1 0x0 DUP1 REVERT JUMPDEST POP JUMP JUMPDEST PUSH1 0x0 DUP2 MLOAD SWAP1 POP PUSH2 0x4AC DUP2 PUSH2 0x486 JUMP JUMPDEST SWAP3 SWAP2 POP POP JUMP JUMPDEST PUSH1 0x0 PUSH12 0xFFFFFFFFFFFFFFFFFFFFFFFF DUP3 AND SWAP1 POP SWAP2 SWAP1 POP JUMP JUMPDEST PUSH2 0x4D3 DUP2 PUSH2 0x4B2 JUMP JUMPDEST DUP2 EQ PUSH2 0x4DE JUMPI PUSH1 0x0 DUP1 REVERT JUMPDEST POP JUMP JUMPDEST PUSH1 0x0 DUP2 MLOAD SWAP1 POP PUSH2 0x4F0 DUP2 PUSH2 0x4CA JUMP JUMPDEST SWAP3 SWAP2 POP POP JUMP JUMPDEST PUSH1 0x0 DUP1 PUSH1 0x0 DUP1 PUSH1 0x80 DUP6 DUP8 SUB SLT ISZERO PUSH2 0x510 JUMPI PUSH2 0x50F PUSH2 0x44F JUMP JUMPDEST JUMPDEST PUSH1 0x0 PUSH2 0x51E DUP8 DUP3 DUP9 ADD PUSH2 0x49D JUMP JUMPDEST SWAP5 POP POP PUSH1 0x20 PUSH2 0x52F DUP8 DUP3 DUP9 ADD PUSH2 0x49D JUMP JUMPDEST SWAP4 POP POP PUSH1 0x40 PUSH2 0x540 DUP8 DUP3 DUP9 ADD PUSH2 0x49D JUMP JUMPDEST SWAP3 POP POP PUSH1 0x60 PUSH2 0x551 DUP8 DUP3 DUP9 ADD PUSH2 0x4E1 JUMP JUMPDEST SWAP2 POP POP SWAP3 SWAP6 SWAP2 SWAP5 POP SWAP3 POP JUMP JUMPDEST PUSH1 0x0 DUP2 MLOAD SWAP1 POP SWAP2 SWAP1 POP JUMP JUMPDEST PUSH32 0x4E487B7100000000000000000000000000000000000000000000000000000000 PUSH1 0x0 MSTORE PUSH1 0x41 PUSH1 0x4 MSTORE PUSH1 0x24 PUSH1 0x0 REVERT JUMPDEST PUSH32 0x4E487B7100000000000000000000000000000000000000000000000000000000 PUSH1 0x0 MSTORE PUSH1 0x22 PUSH1 0x4 MSTORE PUSH1 0x24 PUSH1 0x0 REVERT JUMPDEST PUSH1 0x0 PUSH1 0x2 DUP3 DIV SWAP1 POP PUSH1 0x1 DUP3 AND DUP1 PUSH2 0x5DE JUMPI PUSH1 0x7F DUP3 AND SWAP2 POP JUMPDEST PUSH1 0x20 DUP3 LT DUP2 SUB PUSH2 0x5F1 JUMPI PUSH2 0x5F0 PUSH2 0x597 JUMP JUMPDEST JUMPDEST POP SWAP2 SWAP1 POP JUMP JUMPDEST PUSH1 0x0 DUP2 SWAP1 POP DUP2 PUSH1 0x0 MSTORE PUSH1 0x20 PUSH1 0x0 KECCAK256 SWAP1 POP SWAP2 SWAP1 POP JUMP JUMPDEST PUSH1 0x0 PUSH1 0x20 PUSH1 0x1F DUP4 ADD DIV SWAP1 POP SWAP2 SWAP1 POP JUMP JUMPDEST PUSH1 0x0 DUP3 DUP3 SHL SWAP1 POP SWAP3 SWAP2 POP POP JUMP JUMPDEST PUSH1 0x0 PUSH1 0x8 DUP4 MUL PUSH2 0x659 PUSH32 0xFFFFFFFFFFFFFFFFFFFFFFFFFFFFFFFFFFFFFFFFFFFFFFFFFFFFFFFFFFFFFFFF DUP3 PUSH2 0x61C JUMP JUMPDEST PUSH2 0x663 DUP7 DUP4 PUSH2 0x61C JUMP JUMPDEST SWAP6 POP DUP1 NOT DUP5 AND SWAP4 POP DUP1 DUP7 AND DUP5 OR SWAP3 POP POP POP SWAP4 SWAP3 POP POP POP JUMP JUMPDEST PUSH1 0x0 DUP2 SWAP1 POP SWAP2 SWAP1 POP JUMP JUMPDEST PUSH1 0x0 DUP2 SWAP1 POP SWAP2 SWAP1 POP JUMP JUMPDEST PUSH1 0x0 PUSH2 0x6AA PUSH2 0x6A5 PUSH2 0x6A0 DUP5 PUSH2 0x67B JUMP JUMPDEST PUSH2 0x685 JUMP JUMPDEST PUSH2 0x67B JUMP JUMPDEST SWAP1 POP SWAP2 SWAP1 POP JUMP JUMPDEST PUSH1 0x0 DUP2 SWAP1 POP SWAP2 SWAP1 POP JUMP JUMPDEST PUSH2 0x6C4 DUP4 PUSH2 0x68F JUMP JUMPDEST PUSH2 0x6D8 PUSH2 0x6D0 DUP3 PUSH2 0x6B1 JUMP JUMPDEST DUP5 DUP5 SLOAD PUSH2 0x629 JUMP JUMPDEST DUP3 SSTORE POP POP POP POP JUMP JUMPDEST PUSH1 0x0 SWAP1 JUMP JUMPDEST PUSH2 0x6ED PUSH2 0x6E0 JUMP JUMPDEST PUSH2 0x6F8 DUP2 DUP5 DUP5 PUSH2 0x6BB JUMP JUMPDEST POP POP POP JUMP JUMPDEST JUMPDEST DUP2 DUP2 LT ISZERO PUSH2 0x71C JUMPI PUSH2 0x711 PUSH1 0x0 DUP3 PUSH2 0x6E5 JUMP JUMPDEST PUSH1 0x1 DUP2 ADD SWAP1 POP PUSH2 0x6FE JUMP JUMPDEST POP POP JUMP JUMPDEST PUSH1 0x1F DUP3 GT ISZERO PUSH2 0x761 JUMPI PUSH2 0x732 DUP2 PUSH2 0x5F7 JUMP JUMPDEST PUSH2 0x73B DUP5 PUSH2 0x60C JUMP JUMPDEST DUP2 ADD PUSH1 0x20 DUP6 LT ISZERO PUSH2 0x74A JUMPI DUP2 SWAP1 POP JUMPDEST PUSH2 0x75E PUSH2 0x756 DUP6 PUSH2 0x60C JUMP JUMPDEST DUP4 ADD DUP3 PUSH2 0x6FD JUMP JUMPDEST POP POP JUMPDEST POP POP POP JUMP JUMPDEST PUSH1 0x0 DUP3 DUP3 SHR SWAP1 POP SWAP3 SWAP2 POP POP JUMP JUMPDEST PUSH1 0x0 PUSH2 0x784 PUSH1 0x0 NOT DUP5 PUSH1 0x8 MUL PUSH2 0x766 JUMP JUMPDEST NOT DUP1 DUP4 AND SWAP2 POP POP SWAP3 SWAP2 POP POP JUMP JUMPDEST PUSH1 0x0 PUSH2 0x79D DUP4 DUP4 PUSH2 0x773 JUMP JUMPDEST SWAP2 POP DUP3 PUSH1 0x2 MUL DUP3 OR SWAP1 POP SWAP3 SWAP2 POP POP JUMP JUMPDEST PUSH2 0x7B6 DUP3 PUSH2 0x55D JUMP JUMPDEST PUSH8 0xFFFFFFFFFFFFFFFF DUP2 GT ISZERO PUSH2 0x7CF JUMPI PUSH2 0x7CE PUSH2 0x568 JUMP JUMPDEST JUMPDEST PUSH2 0x7D9 DUP3 SLOAD PUSH2 0x5C6 JUMP JUMPDEST PUSH2 0x7E4 DUP3 DUP3 DUP6 PUSH2 0x720 JUMP JUMPDEST PUSH1 0x0 PUSH1 0x20 SWAP1 POP PUSH1 0x1F DUP4 GT PUSH1 0x1 DUP2 EQ PUSH2 0x817 JUMPI PUSH1 0x0 DUP5 ISZERO PUSH2 0x805 JUMPI DUP3 DUP8 ADD MLOAD SWAP1 POP JUMPDEST PUSH2 0x80F DUP6 DUP3 PUSH2 0x791 JUMP JUMPDEST DUP7 SSTORE POP PUSH2 0x877 JUMP JUMPDEST PUSH1 0x1F NOT DUP5 AND PUSH2 0x825 DUP7 PUSH2 0x5F7 JUMP JUMPDEST PUSH1 0x0 JUMPDEST DUP3 DUP2 LT ISZERO PUSH2 0x84D JUMPI DUP5 DUP10 ADD MLOAD DUP3 SSTORE PUSH1 0x1 DUP3 ADD SWAP2 POP PUSH1 0x20 DUP6 ADD SWAP5 POP PUSH1 0x20 DUP2 ADD SWAP1 POP PUSH2 0x828 JUMP JUMPDEST DUP7 DUP4 LT ISZERO PUSH2 0x86A JUMPI DUP5 DUP10 ADD MLOAD PUSH2 0x866 PUSH1 0x1F DUP10 AND DUP3 PUSH2 0x773 JUMP JUMPDEST DUP4 SSTORE POP JUMPDEST PUSH1 0x1 PUSH1 0x2 DUP9 MUL ADD DUP9 SSTORE POP POP POP JUMPDEST POP POP POP POP POP POP JUMP JUMPDEST PUSH2 0x888 DUP2 PUSH2 0x474 JUMP JUMPDEST DUP3 MSTORE POP POP JUMP JUMPDEST PUSH1 0x0 PUSH1 0x20 DUP3 ADD SWAP1 POP PUSH2 0x8A3 PUSH1 0x0 DUP4 ADD DUP5 PUSH2 0x87F JUMP JUMPDEST SWAP3 SWAP2 POP POP JUMP JUMPDEST PUSH1 0x0 PUSH1 0x40 DUP3 ADD SWAP1 POP PUSH2 0x8BE PUSH1 0x0 DUP4 ADD DUP6 PUSH2 0x87F JUMP JUMPDEST PUSH2 0x8CB PUSH1 0x20 DUP4 ADD DUP5 PUSH2 0x87F JUMP JUMPDEST SWAP4 SWAP3 POP POP POP JUMP JUMPDEST PUSH1 0x0 PUSH2 0x8ED PUSH2 0x8E8 PUSH2 0x8E3 DUP5 PUSH2 0x4B2 JUMP JUMPDEST PUSH2 0x685 JUMP JUMPDEST PUSH2 0x67B JUMP JUMPDEST SWAP1 POP SWAP2 SWAP1 POP JUMP JUMPDEST PUSH2 0x8FD DUP2 PUSH2 0x8D2 JUMP JUMPDEST DUP3 MSTORE POP POP JUMP JUMPDEST PUSH2 0x90C DUP2 PUSH2 0x67B JUMP JUMPDEST DUP3 MSTORE POP POP JUMP JUMPDEST PUSH1 0x0 PUSH1 0x40 DUP3 ADD SWAP1 POP PUSH2 0x927 PUSH1 0x0 DUP4 ADD DUP6 PUSH2 0x8F4 JUMP JUMPDEST PUSH2 0x934 PUSH1 0x20 DUP4 ADD DUP5 PUSH2 0x903 JUMP JUMPDEST SWAP4 SWAP3 POP POP POP JUMP JUMPDEST PUSH2 0x314F DUP1 PUSH2 0x94A PUSH1 0x0 CODECOPY PUSH1 0x0 RETURN INVALID PUSH1 0x80 PUSH1 0x40 MSTORE CALLVALUE DUP1 ISZERO PUSH2 0x10 JUMPI PUSH1 0x0 DUP1 REVERT JUMPDEST POP PUSH1 0x4 CALLDATASIZE LT PUSH2 0x158 JUMPI PUSH1 0x0 CALLDATALOAD PUSH1 0xE0 SHR DUP1 PUSH4 0x6352211E GT PUSH2 0xC3 JUMPI DUP1 PUSH4 0xA9FC664E GT PUSH2 0x7C JUMPI DUP1 PUSH4 0xA9FC664E EQ PUSH2 0x3DD JUMPI DUP1 PUSH4 0xB88D4FDE EQ PUSH2 0x3F9 JUMPI DUP1 PUSH4 0xC87B56DD EQ PUSH2 0x415 JUMPI DUP1 PUSH4 0xCD279C7C EQ PUSH2 0x445 JUMPI DUP1 PUSH4 0xE985E9C5 EQ PUSH2 0x461 JUMPI DUP1 PUSH4 0xF2FDE38B EQ PUSH2 0x491 JUMPI PUSH2 0x158 JUMP JUMPDEST DUP1 PUSH4 0x6352211E EQ PUSH2 0x31B JUMPI DUP1 PUSH4 0x70A08231 EQ PUSH2 0x34B JUMPI DUP1 PUSH4 0x715018A6 EQ PUSH2 0x37B JUMPI DUP1 PUSH4 0x8DA5CB5B EQ PUSH2 0x385 JUMPI DUP1 PUSH4 0x95D89B41 EQ PUSH2 0x3A3 JUMPI DUP1 PUSH4 0xA22CB465 EQ PUSH2 0x3C1 JUMPI PUSH2 0x158 JUMP JUMPDEST DUP1 PUSH4 0x18160DDD GT PUSH2 0x115 JUMPI DUP1 PUSH4 0x18160DDD EQ PUSH2 0x234 JUMPI DUP1 PUSH4 0x23B872DD EQ PUSH2 0x252 JUMPI DUP1 PUSH4 0x2A55205A EQ PUSH2 0x26E JUMPI DUP1 PUSH4 0x2F745C59 EQ PUSH2 0x29F JUMPI DUP1 PUSH4 0x42842E0E EQ PUSH2 0x2CF JUMPI DUP1 PUSH4 0x4F6CCCE7 EQ PUSH2 0x2EB JUMPI PUSH2 0x158 JUMP JUMPDEST DUP1 PUSH4 0x1FFC9A7 EQ PUSH2 0x15D JUMPI DUP1 PUSH4 0x6FDDE03 EQ PUSH2 0x18D JUMPI DUP1 PUSH4 0x81812FC EQ PUSH2 0x1AB JUMPI DUP1 PUSH4 0x95EA7B3 EQ PUSH2 0x1DB JUMPI DUP1 PUSH4 0x98144D4 EQ PUSH2 0x1F7 JUMPI DUP1 PUSH4 0xD705DF6 EQ PUSH2 0x215 JUMPI JUMPDEST PUSH1 0x0 DUP1 REVERT JUMPDEST PUSH2 0x177 PUSH1 0x4 DUP1 CALLDATASIZE SUB DUP2 ADD SWAP1 PUSH2 0x172 SWAP2 SWAP1 PUSH2 0x2436 JUMP JUMPDEST PUSH2 0x4AD JUMP JUMPDEST PUSH1 0x40 MLOAD PUSH2 0x184 SWAP2 SWAP1 PUSH2 0x247E JUMP JUMPDEST PUSH1 0x40 MLOAD DUP1 SWAP2 SUB SWAP1 RETURN JUMPDEST PUSH2 0x195 PUSH2 0x4BF JUMP JUMPDEST PUSH1 0x40 MLOAD PUSH2 0x1A2 SWAP2 SWAP1 PUSH2 0x2529 JUMP JUMPDEST PUSH1 0x40 MLOAD DUP1 SWAP2 SUB SWAP1 RETURN JUMPDEST PUSH2 0x1C5 PUSH1 0x4 DUP1 CALLDATASIZE SUB DUP2 ADD SWAP1 PUSH2 0x1C0 SWAP2 SWAP1 PUSH2 0x2581 JUMP JUMPDEST PUSH2 0x551 JUMP JUMPDEST PUSH1 0x40 MLOAD PUSH2 0x1D2 SWAP2 SWAP1 PUSH2 0x25EF JUMP JUMPDEST PUSH1 0x40 MLOAD DUP1 SWAP2 SUB SWAP1 RETURN JUMPDEST PUSH2 0x1F5 PUSH1 0x4 DUP1 CALLDATASIZE SUB DUP2 ADD SWAP1 PUSH2 0x1F0 SWAP2 SWAP1 PUSH2 0x2636 JUMP JUMPDEST PUSH2 0x56D JUMP JUMPDEST STOP JUMPDEST PUSH2 0x1FF PUSH2 0x583 JUMP JUMPDEST PUSH1 0x40 MLOAD PUSH2 0x20C SWAP2 SWAP1 PUSH2 0x25EF JUMP JUMPDEST PUSH1 0x40 MLOAD DUP1 SWAP2 SUB SWAP1 RETURN JUMPDEST PUSH2 0x21D PUSH2 0x5AD JUMP JUMPDEST PUSH1 0x40 MLOAD PUSH2 0x22B SWAP3 SWAP2 SWAP1 PUSH2 0x2685 JUMP JUMPDEST PUSH1 0x40 MLOAD DUP1 SWAP2 SUB SWAP1 RETURN JUMPDEST PUSH2 0x23C PUSH2 0x5DB JUMP JUMPDEST PUSH1 0x40 MLOAD PUSH2 0x249 SWAP2 SWAP1 PUSH2 0x26BD JUMP JUMPDEST PUSH1 0x40 MLOAD DUP1 SWAP2 SUB SWAP1 RETURN JUMPDEST PUSH2 0x26C PUSH1 0x4 DUP1 CALLDATASIZE SUB DUP2 ADD SWAP1 PUSH2 0x267 SWAP2 SWAP1 PUSH2 0x26D8 JUMP JUMPDEST PUSH2 0x5E8 JUMP JUMPDEST STOP JUMPDEST PUSH2 0x288 PUSH1 0x4 DUP1 CALLDATASIZE SUB DUP2 ADD SWAP1 PUSH2 0x283 SWAP2 SWAP1 PUSH2 0x272B JUMP JUMPDEST PUSH2 0x6EA JUMP JUMPDEST PUSH1 0x40 MLOAD PUSH2 0x296 SWAP3 SWAP2 SWAP1 PUSH2 0x276B JUMP JUMPDEST PUSH1 0x40 MLOAD DUP1 SWAP2 SUB SWAP1 RETURN JUMPDEST PUSH2 0x2B9 PUSH1 0x4 DUP1 CALLDATASIZE SUB DUP2 ADD SWAP1 PUSH2 0x2B4 SWAP2 SWAP1 PUSH2 0x2636 JUMP JUMPDEST PUSH2 0x81A JUMP JUMPDEST PUSH1 0x40 MLOAD PUSH2 0x2C6 SWAP2 SWAP1 PUSH2 0x26BD JUMP JUMPDEST PUSH1 0x40 MLOAD DUP1 SWAP2 SUB SWAP1 RETURN JUMPDEST PUSH2 0x2E9 PUSH1 0x4 DUP1 CALLDATASIZE SUB DUP2 ADD SWAP1 PUSH2 0x2E4 SWAP2 SWAP1 PUSH2 0x26D8 JUMP JUMPDEST PUSH2 0x8C3 JUMP JUMPDEST STOP JUMPDEST PUSH2 0x305 PUSH1 0x4 DUP1 CALLDATASIZE SUB DUP2 ADD SWAP1 PUSH2 0x300 SWAP2 SWAP1 PUSH2 0x2581 JUMP JUMPDEST PUSH2 0x8E3 JUMP JUMPDEST PUSH1 0x40 MLOAD PUSH2 0x312 SWAP2 SWAP1 PUSH2 0x26BD JUMP JUMPDEST PUSH1 0x40 MLOAD DUP1 SWAP2 SUB SWAP1 RETURN JUMPDEST PUSH2 0x335 PUSH1 0x4 DUP1 CALLDATASIZE SUB DUP2 ADD SWAP1 PUSH2 0x330 SWAP2 SWAP1 PUSH2 0x2581 JUMP JUMPDEST PUSH2 0x959 JUMP JUMPDEST PUSH1 0x40 MLOAD PUSH2 0x342 SWAP2 SWAP1 PUSH2 0x25EF JUMP JUMPDEST PUSH1 0x40 MLOAD DUP1 SWAP2 SUB SWAP1 RETURN JUMPDEST PUSH2 0x365 PUSH1 0x4 DUP1 CALLDATASIZE SUB DUP2 ADD SWAP1 PUSH2 0x360 SWAP2 SWAP1 PUSH2 0x2794 JUMP JUMPDEST PUSH2 0x96B JUMP JUMPDEST PUSH1 0x40 MLOAD PUSH2 0x372 SWAP2 SWAP1 PUSH2 0x26BD JUMP JUMPDEST PUSH1 0x40 MLOAD DUP1 SWAP2 SUB SWAP1 RETURN JUMPDEST PUSH2 0x383 PUSH2 0xA25 JUMP JUMPDEST STOP JUMPDEST PUSH2 0x38D PUSH2 0xA39 JUMP JUMPDEST PUSH1 0x40 MLOAD PUSH2 0x39A SWAP2 SWAP1 PUSH2 0x25EF JUMP JUMPDEST PUSH1 0x40 MLOAD DUP1 SWAP2 SUB SWAP1 RETURN JUMPDEST PUSH2 0x3AB PUSH2 0xA63 JUMP JUMPDEST PUSH1 0x40 MLOAD PUSH2 0x3B8 SWAP2 SWAP1 PUSH2 0x2529 JUMP JUMPDEST PUSH1 0x40 MLOAD DUP1 SWAP2 SUB SWAP1 RETURN JUMPDEST PUSH2 0x3DB PUSH1 0x4 DUP1 CALLDATASIZE SUB DUP2 ADD SWAP1 PUSH2 0x3D6 SWAP2 SWAP1 PUSH2 0x27ED JUMP JUMPDEST PUSH2 0xAF5 JUMP JUMPDEST STOP JUMPDEST PUSH2 0x3F7 PUSH1 0x4 DUP1 CALLDATASIZE SUB DUP2 ADD SWAP1 PUSH2 0x3F2 SWAP2 SWAP1 PUSH2 0x2794 JUMP JUMPDEST PUSH2 0xB0B JUMP JUMPDEST STOP JUMPDEST PUSH2 0x413 PUSH1 0x4 DUP1 CALLDATASIZE SUB DUP2 ADD SWAP1 PUSH2 0x40E SWAP2 SWAP1 PUSH2 0x2962 JUMP JUMPDEST PUSH2 0xBB2 JUMP JUMPDEST STOP JUMPDEST PUSH2 0x42F PUSH1 0x4 DUP1 CALLDATASIZE SUB DUP2 ADD SWAP1 PUSH2 0x42A SWAP2 SWAP1 PUSH2 0x2581 JUMP JUMPDEST PUSH2 0xBD7 JUMP JUMPDEST PUSH1 0x40 MLOAD PUSH2 0x43C SWAP2 SWAP1 PUSH2 0x2529 JUMP JUMPDEST PUSH1 0x40 MLOAD DUP1 SWAP2 SUB SWAP1 RETURN JUMPDEST PUSH2 0x45F PUSH1 0x4 DUP1 CALLDATASIZE SUB DUP2 ADD SWAP1 PUSH2 0x45A SWAP2 SWAP1 PUSH2 0x2A86 JUMP JUMPDEST PUSH2 0xBE9 JUMP JUMPDEST STOP JUMPDEST PUSH2 0x47B PUSH1 0x4 DUP1 CALLDATASIZE SUB DUP2 ADD SWAP1 PUSH2 0x476 SWAP2 SWAP1 PUSH2 0x2AF5 JUMP JUMPDEST PUSH2 0xC0A JUMP JUMPDEST PUSH1 0x40 MLOAD PUSH2 0x488 SWAP2 SWAP1 PUSH2 0x247E JUMP JUMPDEST PUSH1 0x40 MLOAD DUP1 SWAP2 SUB SWAP1 RETURN JUMPDEST PUSH2 0x4AB PUSH1 0x4 DUP1 CALLDATASIZE SUB DUP2 ADD SWAP1 PUSH2 0x4A6 SWAP2 SWAP1 PUSH2 0x2794 JUMP JUMPDEST PUSH2 0xC9E JUMP JUMPDEST STOP JUMPDEST PUSH1 0x0 PUSH2 0x4B8 DUP3 PUSH2 0xD24 JUMP JUMPDEST SWAP1 POP SWAP2 SWAP1 POP JUMP JUMPDEST PUSH1 0x60 PUSH1 0x0 DUP1 SLOAD PUSH2 0x4CE SWAP1 PUSH2 0x2B64 JUMP JUMPDEST DUP1 PUSH1 0x1F ADD PUSH1 0x20 DUP1 SWAP2 DIV MUL PUSH1 0x20 ADD PUSH1 0x40 MLOAD SWAP1 DUP2 ADD PUSH1 0x40 MSTORE DUP1 SWAP3 SWAP2 SWAP1 DUP2 DUP2 MSTORE PUSH1 0x20 ADD DUP3 DUP1 SLOAD PUSH2 0x4FA SWAP1 PUSH2 0x2B64 JUMP JUMPDEST DUP1 ISZERO PUSH2 0x547 JUMPI DUP1 PUSH1 0x1F LT PUSH2 0x51C JUMPI PUSH2 0x100 DUP1 DUP4 SLOAD DIV MUL DUP4 MSTORE SWAP2 PUSH1 0x20 ADD SWAP2 PUSH2 0x547 JUMP JUMPDEST DUP3 ADD SWAP2 SWAP1 PUSH1 0x0 MSTORE PUSH1 0x20 PUSH1 0x0 KECCAK256 SWAP1 JUMPDEST DUP2 SLOAD DUP2 MSTORE SWAP1 PUSH1 0x1 ADD SWAP1 PUSH1 0x20 ADD DUP1 DUP4 GT PUSH2 0x52A JUMPI DUP3 SWAP1 SUB PUSH1 0x1F AND DUP3 ADD SWAP2 JUMPDEST POP POP POP POP POP SWAP1 POP SWAP1 JUMP JUMPDEST PUSH1 0x0 PUSH2 0x55C DUP3 PUSH2 0xD9E JUMP JUMPDEST POP PUSH2 0x566 DUP3 PUSH2 0xE26 JUMP JUMPDEST SWAP1 POP SWAP2 SWAP1 POP JUMP JUMPDEST PUSH2 0x57F DUP3 DUP3 PUSH2 0x57A PUSH2 0xE63 JUMP JUMPDEST PUSH2 0xE6B JUMP JUMPDEST POP POP JUMP JUMPDEST PUSH1 0x0 PUSH1 0xE PUSH1 0x0 SWAP1 SLOAD SWAP1 PUSH2 0x100 EXP SWAP1 DIV PUSH20 0xFFFFFFFFFFFFFFFFFFFFFFFFFFFFFFFFFFFFFFFF AND SWAP1 POP SWAP1 JUMP JUMPDEST PUSH1 0x0 DUP1 PUSH32 0xCAEE23EA077851EE825819A64124F89235283956B811450BFEF78ADB3AB8B8D8 PUSH1 0x1 SWAP2 POP SWAP2 POP SWAP1 SWAP2 JUMP JUMPDEST PUSH1 0x0 PUSH1 0x8 DUP1 SLOAD SWAP1 POP SWAP1 POP SWAP1 JUMP JUMPDEST PUSH1 0x0 PUSH20 0xFFFFFFFFFFFFFFFFFFFFFFFFFFFFFFFFFFFFFFFF AND DUP3 PUSH20 0xFFFFFFFFFFFFFFFFFFFFFFFFFFFFFFFFFFFFFFFF AND SUB PUSH2 0x65A JUMPI PUSH1 0x0 PUSH1 0x40 MLOAD PUSH32 0x64A0AE9200000000000000000000000000000000000000000000000000000000 DUP2 MSTORE PUSH1 0x4 ADD PUSH2 0x651 SWAP2 SWAP1 PUSH2 0x25EF JUMP JUMPDEST PUSH1 0x40 MLOAD DUP1 SWAP2 SUB SWAP1 REVERT JUMPDEST PUSH1 0x0 PUSH2 0x66E DUP4 DUP4 PUSH2 0x669 PUSH2 0xE63 JUMP JUMPDEST PUSH2 0xE7D JUMP JUMPDEST SWAP1 POP DUP4 PUSH20 0xFFFFFFFFFFFFFFFFFFFFFFFFFFFFFFFFFFFFFFFF AND DUP2 PUSH20 0xFFFFFFFFFFFFFFFFFFFFFFFFFFFFFFFFFFFFFFFF AND EQ PUSH2 0x6E4 JUMPI DUP4 DUP3 DUP3 PUSH1 0x40 MLOAD PUSH32 0x64283D7B00000000000000000000000000000000000000000000000000000000 DUP2 MSTORE PUSH1 0x4 ADD PUSH2 0x6DB SWAP4 SWAP3 SWAP2 SWAP1 PUSH2 0x2B95 JUMP JUMPDEST PUSH1 0x40 MLOAD DUP1 SWAP2 SUB SWAP1 REVERT JUMPDEST POP POP POP POP JUMP JUMPDEST PUSH1 0x0 DUP1 PUSH1 0x0 PUSH1 0xC PUSH1 0x0 DUP7 DUP2 MSTORE PUSH1 0x20 ADD SWAP1 DUP2 MSTORE PUSH1 0x20 ADD PUSH1 0x0 KECCAK256 SWAP1 POP PUSH1 0x0 DUP2 PUSH1 0x0 ADD PUSH1 0x0 SWAP1 SLOAD SWAP1 PUSH2 0x100 EXP SWAP1 DIV PUSH20 0xFFFFFFFFFFFFFFFFFFFFFFFFFFFFFFFFFFFFFFFF AND SWAP1 POP PUSH1 0x0 DUP3 PUSH1 0x0 ADD PUSH1 0x14 SWAP1 SLOAD SWAP1 PUSH2 0x100 EXP SWAP1 DIV PUSH12 0xFFFFFFFFFFFFFFFFFFFFFFFF AND SWAP1 POP PUSH1 0x0 PUSH20 0xFFFFFFFFFFFFFFFFFFFFFFFFFFFFFFFFFFFFFFFF AND DUP3 PUSH20 0xFFFFFFFFFFFFFFFFFFFFFFFFFFFFFFFFFFFFFFFF AND SUB PUSH2 0x7CB JUMPI PUSH1 0xB PUSH1 0x0 ADD PUSH1 0x0 SWAP1 SLOAD SWAP1 PUSH2 0x100 EXP SWAP1 DIV PUSH20 0xFFFFFFFFFFFFFFFFFFFFFFFFFFFFFFFFFFFFFFFF AND SWAP2 POP PUSH1 0xB PUSH1 0x0 ADD PUSH1 0x14 SWAP1 SLOAD SWAP1 PUSH2 0x100 EXP SWAP1 DIV PUSH12 0xFFFFFFFFFFFFFFFFFFFFFFFF AND SWAP1 POP JUMPDEST PUSH1 0x0 PUSH2 0x7D5 PUSH2 0xE93 JUMP JUMPDEST PUSH12 0xFFFFFFFFFFFFFFFFFFFFFFFF AND DUP3 PUSH12 0xFFFFFFFFFFFFFFFFFFFFFFFF AND DUP9 PUSH2 0x7FD SWAP2 SWAP1 PUSH2 0x2BFB JUMP JUMPDEST PUSH2 0x807 SWAP2 SWAP1 PUSH2 0x2C6C JUMP JUMPDEST SWAP1 POP DUP3 DUP2 SWAP6 POP SWAP6 POP POP POP POP POP SWAP3 POP SWAP3 SWAP1 POP JUMP JUMPDEST PUSH1 0x0 PUSH2 0x825 DUP4 PUSH2 0x96B JUMP JUMPDEST DUP3 LT PUSH2 0x86A JUMPI DUP3 DUP3 PUSH1 0x40 MLOAD PUSH32 0xA57D13DC00000000000000000000000000000000000000000000000000000000 DUP2 MSTORE PUSH1 0x4 ADD PUSH2 0x861 SWAP3 SWAP2 SWAP1 PUSH2 0x276B JUMP JUMPDEST PUSH1 0x40 MLOAD DUP1 SWAP2 SUB SWAP1 REVERT JUMPDEST PUSH1 0x6 PUSH1 0x0 DUP5 PUSH20 0xFFFFFFFFFFFFFFFFFFFFFFFFFFFFFFFFFFFFFFFF AND PUSH20 0xFFFFFFFFFFFFFFFFFFFFFFFFFFFFFFFFFFFFFFFF AND DUP2 MSTORE PUSH1 0x20 ADD SWAP1 DUP2 MSTORE PUSH1 0x20 ADD PUSH1 0x0 KECCAK256 PUSH1 0x0 DUP4 DUP2 MSTORE PUSH1 0x20 ADD SWAP1 DUP2 MSTORE PUSH1 0x20 ADD PUSH1 0x0 KECCAK256 SLOAD SWAP1 POP SWAP3 SWAP2 POP POP JUMP JUMPDEST PUSH2 0x8DE DUP4 DUP4 DUP4 PUSH1 0x40 MLOAD DUP1 PUSH1 0x20 ADD PUSH1 0x40 MSTORE DUP1 PUSH1 0x0 DUP2 MSTORE POP PUSH2 0xBB2 JUMP JUMPDEST POP POP POP JUMP JUMPDEST PUSH1 0x0 PUSH2 0x8ED PUSH2 0x5DB JUMP JUMPDEST DUP3 LT PUSH2 0x933 JUMPI PUSH1 0x0 DUP3 PUSH1 0x40 MLOAD PUSH32 0xA57D13DC00000000000000000000000000000000000000000000000000000000 DUP2 MSTORE PUSH1 0x4 ADD PUSH2 0x92A SWAP3 SWAP2 SWAP1 PUSH2 0x276B JUMP JUMPDEST PUSH1 0x40 MLOAD DUP1 SWAP2 SUB SWAP1 REVERT JUMPDEST PUSH1 0x8 DUP3 DUP2 SLOAD DUP2 LT PUSH2 0x947 JUMPI PUSH2 0x946 PUSH2 0x2C9D JUMP JUMPDEST JUMPDEST SWAP1 PUSH1 0x0 MSTORE PUSH1 0x20 PUSH1 0x0 KECCAK256 ADD SLOAD SWAP1 POP SWAP2 SWAP1 POP JUMP JUMPDEST PUSH1 0x0 PUSH2 0x964 DUP3 PUSH2 0xD9E JUMP JUMPDEST SWAP1 POP SWAP2 SWAP1 POP JUMP JUMPDEST PUSH1 0x0 DUP1 PUSH20 0xFFFFFFFFFFFFFFFFFFFFFFFFFFFFFFFFFFFFFFFF AND DUP3 PUSH20 0xFFFFFFFFFFFFFFFFFFFFFFFFFFFFFFFFFFFFFFFF AND SUB PUSH2 0x9DE JUMPI PUSH1 0x0 PUSH1 0x40 MLOAD PUSH32 0x89C62B6400000000000000000000000000000000000000000000000000000000 DUP2 MSTORE PUSH1 0x4 ADD PUSH2 0x9D5 SWAP2 SWAP1 PUSH2 0x25EF JUMP JUMPDEST PUSH1 0x40 MLOAD DUP1 SWAP2 SUB SWAP1 REVERT JUMPDEST PUSH1 0x3 PUSH1 0x0 DUP4 PUSH20 0xFFFFFFFFFFFFFFFFFFFFFFFFFFFFFFFFFFFFFFFF AND PUSH20 0xFFFFFFFFFFFFFFFFFFFFFFFFFFFFFFFFFFFFFFFF AND DUP2 MSTORE PUSH1 0x20 ADD SWAP1 DUP2 MSTORE PUSH1 0x20 ADD PUSH1 0x0 KECCAK256 SLOAD SWAP1 POP SWAP2 SWAP1 POP JUMP JUMPDEST PUSH2 0xA2D PUSH2 0xE9D JUMP JUMPDEST PUSH2 0xA37 PUSH1 0x0 PUSH2 0xF24 JUMP JUMPDEST JUMP JUMPDEST PUSH1 0x0 PUSH1 0xD PUSH1 0x0 SWAP1 SLOAD SWAP1 PUSH2 0x100 EXP SWAP1 DIV PUSH20 0xFFFFFFFFFFFFFFFFFFFFFFFFFFFFFFFFFFFFFFFF AND SWAP1 POP SWAP1 JUMP JUMPDEST PUSH1 0x60 PUSH1 0x1 DUP1 SLOAD PUSH2 0xA72 SWAP1 PUSH2 0x2B64 JUMP JUMPDEST DUP1 PUSH1 0x1F ADD PUSH1 0x20 DUP1 SWAP2 DIV MUL PUSH1 0x20 ADD PUSH1 0x40 MLOAD SWAP1 DUP2 ADD PUSH1 0x40 MSTORE DUP1 SWAP3 SWAP2 SWAP1 DUP2 DUP2 MSTORE PUSH1 0x20 ADD DUP3 DUP1 SLOAD PUSH2 0xA9E SWAP1 PUSH2 0x2B64 JUMP JUMPDEST DUP1 ISZERO PUSH2 0xAEB JUMPI DUP1 PUSH1 0x1F LT PUSH2 0xAC0 JUMPI PUSH2 0x100 DUP1 DUP4 SLOAD DIV MUL DUP4 MSTORE SWAP2 PUSH1 0x20 ADD SWAP2 PUSH2 0xAEB JUMP JUMPDEST DUP3 ADD SWAP2 SWAP1 PUSH1 0x0 MSTORE PUSH1 0x20 PUSH1 0x0 KECCAK256 SWAP1 JUMPDEST DUP2 SLOAD DUP2 MSTORE SWAP1 PUSH1 0x1 ADD SWAP1 PUSH1 0x20 ADD DUP1 DUP4 GT PUSH2 0xACE JUMPI DUP3 SWAP1 SUB PUSH1 0x1F AND DUP3 ADD SWAP2 JUMPDEST POP POP POP POP POP SWAP1 POP SWAP1 JUMP JUMPDEST PUSH2 0xB07 PUSH2 0xB00 PUSH2 0xE63 JUMP JUMPDEST DUP4 DUP4 PUSH2 0xFEA JUMP JUMPDEST POP POP JUMP JUMPDEST PUSH2 0xB13 PUSH2 0xE9D JUMP JUMPDEST PUSH32 0xCC5DC080FF977B3C3A211FA63AB74F90F658F5BA9D3236E92C8F59570F442AAC PUSH1 0xE PUSH1 0x0 SWAP1 SLOAD SWAP1 PUSH2 0x100 EXP SWAP1 DIV PUSH20 0xFFFFFFFFFFFFFFFFFFFFFFFFFFFFFFFFFFFFFFFF AND DUP3 PUSH1 0x40 MLOAD PUSH2 0xB66 SWAP3 SWAP2 SWAP1 PUSH2 0x2CCC JUMP JUMPDEST PUSH1 0x40 MLOAD DUP1 SWAP2 SUB SWAP1 LOG1 DUP1 PUSH1 0xE PUSH1 0x0 PUSH2 0x100 EXP DUP2 SLOAD DUP2 PUSH20 0xFFFFFFFFFFFFFFFFFFFFFFFFFFFFFFFFFFFFFFFF MUL NOT AND SWAP1 DUP4 PUSH20 0xFFFFFFFFFFFFFFFFFFFFFFFFFFFFFFFFFFFFFFFF AND MUL OR SWAP1 SSTORE POP POP JUMP JUMPDEST PUSH2 0xBBD DUP5 DUP5 DUP5 PUSH2 0x5E8 JUMP JUMPDEST PUSH2 0xBD1 PUSH2 0xBC8 PUSH2 0xE63 JUMP JUMPDEST DUP6 DUP6 DUP6 DUP6 PUSH2 0x1159 JUMP JUMPDEST POP POP POP POP JUMP JUMPDEST PUSH1 0x60 PUSH2 0xBE2 DUP3 PUSH2 0x130A JUMP JUMPDEST SWAP1 POP SWAP2 SWAP1 POP JUMP JUMPDEST PUSH2 0xBF1 PUSH2 0xE9D JUMP JUMPDEST PUSH2 0xBFB DUP4 DUP4 PUSH2 0x141D JUMP JUMPDEST PUSH2 0xC05 DUP3 DUP3 PUSH2 0x143B JUMP JUMPDEST POP POP POP JUMP JUMPDEST PUSH1 0x0 PUSH1 0x5 PUSH1 0x0 DUP5 PUSH20 0xFFFFFFFFFFFFFFFFFFFFFFFFFFFFFFFFFFFFFFFF AND PUSH20 0xFFFFFFFFFFFFFFFFFFFFFFFFFFFFFFFFFFFFFFFF AND DUP2 MSTORE PUSH1 0x20 ADD SWAP1 DUP2 MSTORE PUSH1 0x20 ADD PUSH1 0x0 KECCAK256 PUSH1 0x0 DUP4 PUSH20 0xFFFFFFFFFFFFFFFFFFFFFFFFFFFFFFFFFFFFFFFF AND PUSH20 0xFFFFFFFFFFFFFFFFFFFFFFFFFFFFFFFFFFFFFFFF AND DUP2 MSTORE PUSH1 0x20 ADD SWAP1 DUP2 MSTORE PUSH1 0x20 ADD PUSH1 0x0 KECCAK256 PUSH1 0x0 SWAP1 SLOAD SWAP1 PUSH2 0x100 EXP SWAP1 DIV PUSH1 0xFF AND SWAP1 POP SWAP3 SWAP2 POP POP JUMP JUMPDEST PUSH2 0xCA6 PUSH2 0xE9D JUMP JUMPDEST PUSH1 0x0 PUSH20 0xFFFFFFFFFFFFFFFFFFFFFFFFFFFFFFFFFFFFFFFF AND DUP2 PUSH20 0xFFFFFFFFFFFFFFFFFFFFFFFFFFFFFFFFFFFFFFFF AND SUB PUSH2 0xD18 JUMPI PUSH1 0x0 PUSH1 0x40 MLOAD PUSH32 0x1E4FBDF700000000000000000000000000000000000000000000000000000000 DUP2 MSTORE PUSH1 0x4 ADD PUSH2 0xD0F SWAP2 SWAP1 PUSH2 0x25EF JUMP JUMPDEST PUSH1 0x40 MLOAD DUP1 SWAP2 SUB SWAP1 REVERT JUMPDEST PUSH2 0xD21 DUP2 PUSH2 0xF24 JUMP JUMPDEST POP JUMP JUMPDEST PUSH1 0x0 PUSH32 0x2A55205A00000000000000000000000000000000000000000000000000000000 PUSH28 0xFFFFFFFFFFFFFFFFFFFFFFFFFFFFFFFFFFFFFFFFFFFFFFFFFFFFFFFF NOT AND DUP3 PUSH28 0xFFFFFFFFFFFFFFFFFFFFFFFFFFFFFFFFFFFFFFFFFFFFFFFFFFFFFFFF NOT AND EQ DUP1 PUSH2 0xD97 JUMPI POP PUSH2 0xD96 DUP3 PUSH2 0x1497 JUMP JUMPDEST JUMPDEST SWAP1 POP SWAP2 SWAP1 POP JUMP JUMPDEST PUSH1 0x0 DUP1 PUSH2 0xDAA DUP4 PUSH2 0x14F8 JUMP JUMPDEST SWAP1 POP PUSH1 0x0 PUSH20 0xFFFFFFFFFFFFFFFFFFFFFFFFFFFFFFFFFFFFFFFF AND DUP2 PUSH20 0xFFFFFFFFFFFFFFFFFFFFFFFFFFFFFFFFFFFFFFFF AND SUB PUSH2 0xE1D JUMPI DUP3 PUSH1 0x40 MLOAD PUSH32 0x7E27328900000000000000000000000000000000000000000000000000000000 DUP2 MSTORE PUSH1 0x4 ADD PUSH2 0xE14 SWAP2 SWAP1 PUSH2 0x26BD JUMP JUMPDEST PUSH1 0x40 MLOAD DUP1 SWAP2 SUB SWAP1 REVERT JUMPDEST DUP1 SWAP2 POP POP SWAP2 SWAP1 POP JUMP JUMPDEST PUSH1 0x0 PUSH1 0x4 PUSH1 0x0 DUP4 DUP2 MSTORE PUSH1 0x20 ADD SWAP1 DUP2 MSTORE PUSH1 0x20 ADD PUSH1 0x0 KECCAK256 PUSH1 0x0 SWAP1 SLOAD SWAP1 PUSH2 0x100 EXP SWAP1 DIV PUSH20 0xFFFFFFFFFFFFFFFFFFFFFFFFFFFFFFFFFFFFFFFF AND SWAP1 POP SWAP2 SWAP1 POP JUMP JUMPDEST PUSH1 0x0 CALLER SWAP1 POP SWAP1 JUMP JUMPDEST PUSH2 0xE78 DUP4 DUP4 DUP4 PUSH1 0x1 PUSH2 0x1535 JUMP JUMPDEST POP POP POP JUMP JUMPDEST PUSH1 0x0 PUSH2 0xE8A DUP5 DUP5 DUP5 PUSH2 0x16FA JUMP JUMPDEST SWAP1 POP SWAP4 SWAP3 POP POP POP JUMP JUMPDEST PUSH1 0x0 PUSH2 0x2710 SWAP1 POP SWAP1 JUMP JUMPDEST PUSH2 0xEA5 PUSH2 0xE63 JUMP JUMPDEST PUSH20 0xFFFFFFFFFFFFFFFFFFFFFFFFFFFFFFFFFFFFFFFF AND PUSH2 0xEC3 PUSH2 0xA39 JUMP JUMPDEST PUSH20 0xFFFFFFFFFFFFFFFFFFFFFFFFFFFFFFFFFFFFFFFF AND EQ PUSH2 0xF22 JUMPI PUSH2 0xEE6 PUSH2 0xE63 JUMP JUMPDEST PUSH1 0x40 MLOAD PUSH32 0x118CDAA700000000000000000000000000000000000000000000000000000000 DUP2 MSTORE PUSH1 0x4 ADD PUSH2 0xF19 SWAP2 SWAP1 PUSH2 0x25EF JUMP JUMPDEST PUSH1 0x40 MLOAD DUP1 SWAP2 SUB SWAP1 REVERT JUMPDEST JUMP JUMPDEST PUSH1 0x0 PUSH1 0xD PUSH1 0x0 SWAP1 SLOAD SWAP1 PUSH2 0x100 EXP SWAP1 DIV PUSH20 0xFFFFFFFFFFFFFFFFFFFFFFFFFFFFFFFFFFFFFFFF AND SWAP1 POP DUP2 PUSH1 0xD PUSH1 0x0 PUSH2 0x100 EXP DUP2 SLOAD DUP2 PUSH20 0xFFFFFFFFFFFFFFFFFFFFFFFFFFFFFFFFFFFFFFFF MUL NOT AND SWAP1 DUP4 PUSH20 0xFFFFFFFFFFFFFFFFFFFFFFFFFFFFFFFFFFFFFFFF AND MUL OR SWAP1 SSTORE POP DUP2 PUSH20 0xFFFFFFFFFFFFFFFFFFFFFFFFFFFFFFFFFFFFFFFF AND DUP2 PUSH20 0xFFFFFFFFFFFFFFFFFFFFFFFFFFFFFFFFFFFFFFFF AND PUSH32 0x8BE0079C531659141344CD1FD0A4F28419497F9722A3DAAFE3B4186F6B6457E0 PUSH1 0x40 MLOAD PUSH1 0x40 MLOAD DUP1 SWAP2 SUB SWAP1 LOG3 POP POP JUMP JUMPDEST PUSH1 0x0 PUSH20 0xFFFFFFFFFFFFFFFFFFFFFFFFFFFFFFFFFFFFFFFF AND DUP3 PUSH20 0xFFFFFFFFFFFFFFFFFFFFFFFFFFFFFFFFFFFFFFFF AND SUB PUSH2 0x105B JUMPI DUP2 PUSH1 0x40 MLOAD PUSH32 0x5B08BA1800000000000000000000000000000000000000000000000000000000 DUP2 MSTORE PUSH1 0x4 ADD PUSH2 0x1052 SWAP2 SWAP1 PUSH2 0x25EF JUMP JUMPDEST PUSH1 0x40 MLOAD DUP1 SWAP2 SUB SWAP1 REVERT JUMPDEST DUP1 PUSH1 0x5 PUSH1 0x0 DUP6 PUSH20 0xFFFFFFFFFFFFFFFFFFFFFFFFFFFFFFFFFFFFFFFF AND PUSH20 0xFFFFFFFFFFFFFFFFFFFFFFFFFFFFFFFFFFFFFFFF AND DUP2 MSTORE PUSH1 0x20 ADD SWAP1 DUP2 MSTORE PUSH1 0x20 ADD PUSH1 0x0 KECCAK256 PUSH1 0x0 DUP5 PUSH20 0xFFFFFFFFFFFFFFFFFFFFFFFFFFFFFFFFFFFFFFFF AND PUSH20 0xFFFFFFFFFFFFFFFFFFFFFFFFFFFFFFFFFFFFFFFF AND DUP2 MSTORE PUSH1 0x20 ADD SWAP1 DUP2 MSTORE PUSH1 0x20 ADD PUSH1 0x0 KECCAK256 PUSH1 0x0 PUSH2 0x100 EXP DUP2 SLOAD DUP2 PUSH1 0xFF MUL NOT AND SWAP1 DUP4 ISZERO ISZERO MUL OR SWAP1 SSTORE POP DUP2 PUSH20 0xFFFFFFFFFFFFFFFFFFFFFFFFFFFFFFFFFFFFFFFF AND DUP4 PUSH20 0xFFFFFFFFFFFFFFFFFFFFFFFFFFFFFFFFFFFFFFFF AND PUSH32 0x17307EAB39AB6107E8899845AD3D59BD9653F200F220920489CA2B5937696C31 DUP4 PUSH1 0x40 MLOAD PUSH2 0x114C SWAP2 SWAP1 PUSH2 0x247E JUMP JUMPDEST PUSH1 0x40 MLOAD DUP1 SWAP2 SUB SWAP1 LOG3 POP POP POP JUMP JUMPDEST PUSH1 0x0 DUP4 PUSH20 0xFFFFFFFFFFFFFFFFFFFFFFFFFFFFFFFFFFFFFFFF AND EXTCODESIZE GT ISZERO PUSH2 0x1303 JUMPI DUP3 PUSH20 0xFFFFFFFFFFFFFFFFFFFFFFFFFFFFFFFFFFFFFFFF AND PUSH4 0x150B7A02 DUP7 DUP7 DUP6 DUP6 PUSH1 0x40 MLOAD DUP6 PUSH4 0xFFFFFFFF AND PUSH1 0xE0 SHL DUP2 MSTORE PUSH1 0x4 ADD PUSH2 0x11B8 SWAP5 SWAP4 SWAP3 SWAP2 SWAP1 PUSH2 0x2D4A JUMP JUMPDEST PUSH1 0x20 PUSH1 0x40 MLOAD DUP1 DUP4 SUB DUP2 PUSH1 0x0 DUP8 GAS CALL SWAP3 POP POP POP DUP1 ISZERO PUSH2 0x11F4 JUMPI POP PUSH1 0x40 MLOAD RETURNDATASIZE PUSH1 0x1F NOT PUSH1 0x1F DUP3 ADD AND DUP3 ADD DUP1 PUSH1 0x40 MSTORE POP DUP2 ADD SWAP1 PUSH2 0x11F1 SWAP2 SWAP1 PUSH2 0x2DAB JUMP JUMPDEST PUSH1 0x1 JUMPDEST PUSH2 0x1278 JUMPI RETURNDATASIZE DUP1 PUSH1 0x0 DUP2 EQ PUSH2 0x1224 JUMPI PUSH1 0x40 MLOAD SWAP2 POP PUSH1 0x1F NOT PUSH1 0x3F RETURNDATASIZE ADD AND DUP3 ADD PUSH1 0x40 MSTORE RETURNDATASIZE DUP3 MSTORE RETURNDATASIZE PUSH1 0x0 PUSH1 0x20 DUP5 ADD RETURNDATACOPY PUSH2 0x1229 JUMP JUMPDEST PUSH1 0x60 SWAP2 POP JUMPDEST POP PUSH1 0x0 DUP2 MLOAD SUB PUSH2 0x1270 JUMPI DUP4 PUSH1 0x40 MLOAD PUSH32 0x64A0AE9200000000000000000000000000000000000000000000000000000000 DUP2 MSTORE PUSH1 0x4 ADD PUSH2 0x1267 SWAP2 SWAP1 PUSH2 0x25EF JUMP JUMPDEST PUSH1 0x40 MLOAD DUP1 SWAP2 SUB SWAP1 REVERT JUMPDEST DUP1 MLOAD DUP2 PUSH1 0x20 ADD REVERT JUMPDEST PUSH4 0x150B7A02 PUSH1 0xE0 SHL PUSH28 0xFFFFFFFFFFFFFFFFFFFFFFFFFFFFFFFFFFFFFFFFFFFFFFFFFFFFFFFF NOT AND DUP2 PUSH28 0xFFFFFFFFFFFFFFFFFFFFFFFFFFFFFFFFFFFFFFFFFFFFFFFFFFFFFFFF NOT AND EQ PUSH2 0x1301 JUMPI DUP4 PUSH1 0x40 MLOAD PUSH32 0x64A0AE9200000000000000000000000000000000000000000000000000000000 DUP2 MSTORE PUSH1 0x4 ADD PUSH2 0x12F8 SWAP2 SWAP1 PUSH2 0x25EF JUMP JUMPDEST PUSH1 0x40 MLOAD DUP1 SWAP2 SUB SWAP1 REVERT JUMPDEST POP JUMPDEST POP POP POP POP POP JUMP JUMPDEST PUSH1 0x60 PUSH2 0x1315 DUP3 PUSH2 0xD9E JUMP JUMPDEST POP PUSH1 0x0 PUSH1 0xA PUSH1 0x0 DUP5 DUP2 MSTORE PUSH1 0x20 ADD SWAP1 DUP2 MSTORE PUSH1 0x20 ADD PUSH1 0x0 KECCAK256 DUP1 SLOAD PUSH2 0x1336 SWAP1 PUSH2 0x2B64 JUMP JUMPDEST DUP1 PUSH1 0x1F ADD PUSH1 0x20 DUP1 SWAP2 DIV MUL PUSH1 0x20 ADD PUSH1 0x40 MLOAD SWAP1 DUP2 ADD PUSH1 0x40 MSTORE DUP1 SWAP3 SWAP2 SWAP1 DUP2 DUP2 MSTORE PUSH1 0x20 ADD DUP3 DUP1 SLOAD PUSH2 0x1362 SWAP1 PUSH2 0x2B64 JUMP JUMPDEST DUP1 ISZERO PUSH2 0x13AF JUMPI DUP1 PUSH1 0x1F LT PUSH2 0x1384 JUMPI PUSH2 0x100 DUP1 DUP4 SLOAD DIV MUL DUP4 MSTORE SWAP2 PUSH1 0x20 ADD SWAP2 PUSH2 0x13AF JUMP JUMPDEST DUP3 ADD SWAP2 SWAP1 PUSH1 0x0 MSTORE PUSH1 0x20 PUSH1 0x0 KECCAK256 SWAP1 JUMPDEST DUP2 SLOAD DUP2 MSTORE SWAP1 PUSH1 0x1 ADD SWAP1 PUSH1 0x20 ADD DUP1 DUP4 GT PUSH2 0x1392 JUMPI DUP3 SWAP1 SUB PUSH1 0x1F AND DUP3 ADD SWAP2 JUMPDEST POP POP POP POP POP SWAP1 POP PUSH1 0x0 PUSH2 0x13C0 PUSH2 0x1817 JUMP JUMPDEST SWAP1 POP PUSH1 0x0 DUP2 MLOAD SUB PUSH2 0x13D5 JUMPI DUP2 SWAP3 POP POP POP PUSH2 0x1418 JUMP JUMPDEST PUSH1 0x0 DUP3 MLOAD GT ISZERO PUSH2 0x140A JUMPI DUP1 DUP3 PUSH1 0x40 MLOAD PUSH1 0x20 ADD PUSH2 0x13F2 SWAP3 SWAP2 SWAP1 PUSH2 0x2E14 JUMP JUMPDEST PUSH1 0x40 MLOAD PUSH1 0x20 DUP2 DUP4 SUB SUB DUP2 MSTORE SWAP1 PUSH1 0x40 MSTORE SWAP3 POP POP POP PUSH2 0x1418 JUMP JUMPDEST PUSH2 0x1413 DUP5 PUSH2 0x182E JUMP JUMPDEST SWAP3 POP POP POP JUMPDEST SWAP2 SWAP1 POP JUMP JUMPDEST PUSH2 0x1437 DUP3 DUP3 PUSH1 0x40 MLOAD DUP1 PUSH1 0x20 ADD PUSH1 0x40 MSTORE DUP1 PUSH1 0x0 DUP2 MSTORE POP PUSH2 0x1897 JUMP JUMPDEST POP POP JUMP JUMPDEST DUP1 PUSH1 0xA PUSH1 0x0 DUP5 DUP2 MSTORE PUSH1 0x20 ADD SWAP1 DUP2 MSTORE PUSH1 0x20 ADD PUSH1 0x0 KECCAK256 SWAP1 DUP2 PUSH2 0x145B SWAP2 SWAP1 PUSH2 0x2FE4 JUMP JUMPDEST POP PUSH32 0xF8E1A15ABA9398E019F0B49DF1A4FDE98EE17AE345CB5F6B5E2C27F5033E8CE7 DUP3 PUSH1 0x40 MLOAD PUSH2 0x148B SWAP2 SWAP1 PUSH2 0x26BD JUMP JUMPDEST PUSH1 0x40 MLOAD DUP1 SWAP2 SUB SWAP1 LOG1 POP POP JUMP JUMPDEST PUSH1 0x0 PUSH4 0x49064906 PUSH1 0xE0 SHL PUSH28 0xFFFFFFFFFFFFFFFFFFFFFFFFFFFFFFFFFFFFFFFFFFFFFFFFFFFFFFFF NOT AND DUP3 PUSH28 0xFFFFFFFFFFFFFFFFFFFFFFFFFFFFFFFFFFFFFFFFFFFFFFFFFFFFFFFF NOT AND EQ DUP1 PUSH2 0x14F1 JUMPI POP PUSH2 0x14F0 DUP3 PUSH2 0x18BB JUMP JUMPDEST JUMPDEST SWAP1 POP SWAP2 SWAP1 POP JUMP JUMPDEST PUSH1 0x0 PUSH1 0x2 PUSH1 0x0 DUP4 DUP2 MSTORE PUSH1 0x20 ADD SWAP1 DUP2 MSTORE PUSH1 0x20 ADD PUSH1 0x0 KECCAK256 PUSH1 0x0 SWAP1 SLOAD SWAP1 PUSH2 0x100 EXP SWAP1 DIV PUSH20 0xFFFFFFFFFFFFFFFFFFFFFFFFFFFFFFFFFFFFFFFF AND SWAP1 POP SWAP2 SWAP1 POP JUMP JUMPDEST DUP1 DUP1 PUSH2 0x156E JUMPI POP PUSH1 0x0 PUSH20 0xFFFFFFFFFFFFFFFFFFFFFFFFFFFFFFFFFFFFFFFF AND DUP3 PUSH20 0xFFFFFFFFFFFFFFFFFFFFFFFFFFFFFFFFFFFFFFFF AND EQ ISZERO JUMPDEST ISZERO PUSH2 0x16A2 JUMPI PUSH1 0x0 PUSH2 0x157E DUP5 PUSH2 0xD9E JUMP JUMPDEST SWAP1 POP PUSH1 0x0 PUSH20 0xFFFFFFFFFFFFFFFFFFFFFFFFFFFFFFFFFFFFFFFF AND DUP4 PUSH20 0xFFFFFFFFFFFFFFFFFFFFFFFFFFFFFFFFFFFFFFFF AND EQ ISZERO DUP1 ISZERO PUSH2 0x15E9 JUMPI POP DUP3 PUSH20 0xFFFFFFFFFFFFFFFFFFFFFFFFFFFFFFFFFFFFFFFF AND DUP2 PUSH20 0xFFFFFFFFFFFFFFFFFFFFFFFFFFFFFFFFFFFFFFFF AND EQ ISZERO JUMPDEST DUP1 ISZERO PUSH2 0x15FC JUMPI POP PUSH2 0x15FA DUP2 DUP5 PUSH2 0xC0A JUMP JUMPDEST ISZERO JUMPDEST ISZERO PUSH2 0x163E JUMPI DUP3 PUSH1 0x40 MLOAD PUSH32 0xA9FBF51F00000000000000000000000000000000000000000000000000000000 DUP2 MSTORE PUSH1 0x4 ADD PUSH2 0x1635 SWAP2 SWAP1 PUSH2 0x25EF JUMP JUMPDEST PUSH1 0x40 MLOAD DUP1 SWAP2 SUB SWAP1 REVERT JUMPDEST DUP2 ISZERO PUSH2 0x16A0 JUMPI DUP4 DUP6 PUSH20 0xFFFFFFFFFFFFFFFFFFFFFFFFFFFFFFFFFFFFFFFF AND DUP3 PUSH20 0xFFFFFFFFFFFFFFFFFFFFFFFFFFFFFFFFFFFFFFFF AND PUSH32 0x8C5BE1E5EBEC7D5BD14F71427D1E84F3DD0314C0F7B2291E5B200AC8C7C3B925 PUSH1 0x40 MLOAD PUSH1 0x40 MLOAD DUP1 SWAP2 SUB SWAP1 LOG4 JUMPDEST POP JUMPDEST DUP4 PUSH1 0x4 PUSH1 0x0 DUP6 DUP2 MSTORE PUSH1 0x20 ADD SWAP1 DUP2 MSTORE PUSH1 0x20 ADD PUSH1 0x0 KECCAK256 PUSH1 0x0 PUSH2 0x100 EXP DUP2 SLOAD DUP2 PUSH20 0xFFFFFFFFFFFFFFFFFFFFFFFFFFFFFFFFFFFFFFFF MUL NOT AND SWAP1 DUP4 PUSH20 0xFFFFFFFFFFFFFFFFFFFFFFFFFFFFFFFFFFFFFFFF AND MUL OR SWAP1 SSTORE POP POP POP POP POP JUMP JUMPDEST PUSH1 0x0 DUP1 PUSH2 0x1708 DUP6 DUP6 DUP6 PUSH2 0x1935 JUMP JUMPDEST SWAP1 POP PUSH1 0x0 PUSH20 0xFFFFFFFFFFFFFFFFFFFFFFFFFFFFFFFFFFFFFFFF AND DUP2 PUSH20 0xFFFFFFFFFFFFFFFFFFFFFFFFFFFFFFFFFFFFFFFF AND SUB PUSH2 0x174C JUMPI PUSH2 0x1747 DUP5 PUSH2 0x1B4F JUMP JUMPDEST PUSH2 0x178B JUMP JUMPDEST DUP5 PUSH20 0xFFFFFFFFFFFFFFFFFFFFFFFFFFFFFFFFFFFFFFFF AND DUP2 PUSH20 0xFFFFFFFFFFFFFFFFFFFFFFFFFFFFFFFFFFFFFFFF AND EQ PUSH2 0x178A JUMPI PUSH2 0x1789 DUP2 DUP6 PUSH2 0x1B98 JUMP JUMPDEST JUMPDEST JUMPDEST PUSH1 0x0 PUSH20 0xFFFFFFFFFFFFFFFFFFFFFFFFFFFFFFFFFFFFFFFF AND DUP6 PUSH20 0xFFFFFFFFFFFFFFFFFFFFFFFFFFFFFFFFFFFFFFFF AND SUB PUSH2 0x17CD JUMPI PUSH2 0x17C8 DUP5 PUSH2 0x1C83 JUMP JUMPDEST PUSH2 0x180C JUMP JUMPDEST DUP5 PUSH20 0xFFFFFFFFFFFFFFFFFFFFFFFFFFFFFFFFFFFFFFFF AND DUP2 PUSH20 0xFFFFFFFFFFFFFFFFFFFFFFFFFFFFFFFFFFFFFFFF AND EQ PUSH2 0x180B JUMPI PUSH2 0x180A DUP6 DUP6 PUSH2 0x1D54 JUMP JUMPDEST JUMPDEST JUMPDEST DUP1 SWAP2 POP POP SWAP4 SWAP3 POP POP POP JUMP JUMPDEST PUSH1 0x60 PUSH1 0x40 MLOAD DUP1 PUSH1 0x20 ADD PUSH1 0x40 MSTORE DUP1 PUSH1 0x0 DUP2 MSTORE POP SWAP1 POP SWAP1 JUMP JUMPDEST PUSH1 0x60 PUSH2 0x1839 DUP3 PUSH2 0xD9E JUMP JUMPDEST POP PUSH1 0x0 PUSH2 0x1844 PUSH2 0x1817 JUMP JUMPDEST SWAP1 POP PUSH1 0x0 DUP2 MLOAD GT PUSH2 0x1864 JUMPI PUSH1 0x40 MLOAD DUP1 PUSH1 0x20 ADD PUSH1 0x40 MSTORE DUP1 PUSH1 0x0 DUP2 MSTORE POP PUSH2 0x188F JUMP JUMPDEST DUP1 PUSH2 0x186E DUP5 PUSH2 0x1DDF JUMP JUMPDEST PUSH1 0x40 MLOAD PUSH1 0x20 ADD PUSH2 0x187F SWAP3 SWAP2 SWAP1 PUSH2 0x2E14 JUMP JUMPDEST PUSH1 0x40 MLOAD PUSH1 0x20 DUP2 DUP4 SUB SUB DUP2 MSTORE SWAP1 PUSH1 0x40 MSTORE JUMPDEST SWAP2 POP POP SWAP2 SWAP1 POP JUMP JUMPDEST PUSH2 0x18A1 DUP4 DUP4 PUSH2 0x1EAD JUMP JUMPDEST PUSH2 0x18B6 PUSH2 0x18AC PUSH2 0xE63 JUMP JUMPDEST PUSH1 0x0 DUP6 DUP6 DUP6 PUSH2 0x1159 JUMP JUMPDEST POP POP POP JUMP JUMPDEST PUSH1 0x0 PUSH32 0x780E9D6300000000000000000000000000000000000000000000000000000000 PUSH28 0xFFFFFFFFFFFFFFFFFFFFFFFFFFFFFFFFFFFFFFFFFFFFFFFFFFFFFFFF NOT AND DUP3 PUSH28 0xFFFFFFFFFFFFFFFFFFFFFFFFFFFFFFFFFFFFFFFFFFFFFFFFFFFFFFFF NOT AND EQ DUP1 PUSH2 0x192E JUMPI POP PUSH2 0x192D DUP3 PUSH2 0x1FA6 JUMP JUMPDEST JUMPDEST SWAP1 POP SWAP2 SWAP1 POP JUMP JUMPDEST PUSH1 0x0 DUP1 PUSH2 0x1941 DUP5 PUSH2 0x14F8 JUMP JUMPDEST SWAP1 POP PUSH1 0x0 PUSH20 0xFFFFFFFFFFFFFFFFFFFFFFFFFFFFFFFFFFFFFFFF AND DUP4 PUSH20 0xFFFFFFFFFFFFFFFFFFFFFFFFFFFFFFFFFFFFFFFF AND EQ PUSH2 0x1983 JUMPI PUSH2 0x1982 DUP2 DUP5 DUP7 PUSH2 0x2088 JUMP JUMPDEST JUMPDEST PUSH1 0x0 PUSH20 0xFFFFFFFFFFFFFFFFFFFFFFFFFFFFFFFFFFFFFFFF AND DUP2 PUSH20 0xFFFFFFFFFFFFFFFFFFFFFFFFFFFFFFFFFFFFFFFF AND EQ PUSH2 0x1A14 JUMPI PUSH2 0x19C5 PUSH1 0x0 DUP6 PUSH1 0x0 DUP1 PUSH2 0x1535 JUMP JUMPDEST PUSH1 0x1 PUSH1 0x3 PUSH1 0x0 DUP4 PUSH20 0xFFFFFFFFFFFFFFFFFFFFFFFFFFFFFFFFFFFFFFFF AND PUSH20 0xFFFFFFFFFFFFFFFFFFFFFFFFFFFFFFFFFFFFFFFF AND DUP2 MSTORE PUSH1 0x20 ADD SWAP1 DUP2 MSTORE PUSH1 0x20 ADD PUSH1 0x0 KECCAK256 PUSH1 0x0 DUP3 DUP3 SLOAD SUB SWAP3 POP POP DUP2 SWAP1 SSTORE POP JUMPDEST PUSH1 0x0 PUSH20 0xFFFFFFFFFFFFFFFFFFFFFFFFFFFFFFFFFFFFFFFF AND DUP6 PUSH20 0xFFFFFFFFFFFFFFFFFFFFFFFFFFFFFFFFFFFFFFFF AND EQ PUSH2 0x1A97 JUMPI PUSH1 0x1 PUSH1 0x3 PUSH1 0x0 DUP8 PUSH20 0xFFFFFFFFFFFFFFFFFFFFFFFFFFFFFFFFFFFFFFFF AND PUSH20 0xFFFFFFFFFFFFFFFFFFFFFFFFFFFFFFFFFFFFFFFF AND DUP2 MSTORE PUSH1 0x20 ADD SWAP1 DUP2 MSTORE PUSH1 0x20 ADD PUSH1 0x0 KECCAK256 PUSH1 0x0 DUP3 DUP3 SLOAD ADD SWAP3 POP POP DUP2 SWAP1 SSTORE POP JUMPDEST DUP5 PUSH1 0x2 PUSH1 0x0 DUP7 DUP2 MSTORE PUSH1 0x20 ADD SWAP1 DUP2 MSTORE PUSH1 0x20 ADD PUSH1 0x0 KECCAK256 PUSH1 0x0 PUSH2 0x100 EXP DUP2 SLOAD DUP2 PUSH20 0xFFFFFFFFFFFFFFFFFFFFFFFFFFFFFFFFFFFFFFFF MUL NOT AND SWAP1 DUP4 PUSH20 0xFFFFFFFFFFFFFFFFFFFFFFFFFFFFFFFFFFFFFFFF AND MUL OR SWAP1 SSTORE POP DUP4 DUP6 PUSH20 0xFFFFFFFFFFFFFFFFFFFFFFFFFFFFFFFFFFFFFFFF AND DUP3 PUSH20 0xFFFFFFFFFFFFFFFFFFFFFFFFFFFFFFFFFFFFFFFF AND PUSH32 0xDDF252AD1BE2C89B69C2B068FC378DAA952BA7F163C4A11628F55A4DF523B3EF PUSH1 0x40 MLOAD PUSH1 0x40 MLOAD DUP1 SWAP2 SUB SWAP1 LOG4 DUP1 SWAP2 POP POP SWAP4 SWAP3 POP POP POP JUMP JUMPDEST PUSH1 0x8 DUP1 SLOAD SWAP1 POP PUSH1 0x9 PUSH1 0x0 DUP4 DUP2 MSTORE PUSH1 0x20 ADD SWAP1 DUP2 MSTORE PUSH1 0x20 ADD PUSH1 0x0 KECCAK256 DUP2 SWAP1 SSTORE POP PUSH1 0x8 DUP2 SWAP1 DUP1 PUSH1 0x1 DUP2 SLOAD ADD DUP1 DUP3 SSTORE DUP1 SWAP2 POP POP PUSH1 0x1 SWAP1 SUB SWAP1 PUSH1 0x0 MSTORE PUSH1 0x20 PUSH1 0x0 KECCAK256 ADD PUSH1 0x0 SWAP1 SWAP2 SWAP1 SWAP2 SWAP1 SWAP2 POP SSTORE POP JUMP JUMPDEST PUSH1 0x0 PUSH2 0x1BA3 DUP4 PUSH2 0x96B JUMP JUMPDEST SWAP1 POP PUSH1 0x0 PUSH1 0x7 PUSH1 0x0 DUP5 DUP2 MSTORE PUSH1 0x20 ADD SWAP1 DUP2 MSTORE PUSH1 0x20 ADD PUSH1 0x0 KECCAK256 SLOAD SWAP1 POP PUSH1 0x0 PUSH1 0x6 PUSH1 0x0 DUP7 PUSH20 0xFFFFFFFFFFFFFFFFFFFFFFFFFFFFFFFFFFFFFFFF AND PUSH20 0xFFFFFFFFFFFFFFFFFFFFFFFFFFFFFFFFFFFFFFFF AND DUP2 MSTORE PUSH1 0x20 ADD SWAP1 DUP2 MSTORE PUSH1 0x20 ADD PUSH1 0x0 KECCAK256 SWAP1 POP DUP3 DUP3 EQ PUSH2 0x1C4F JUMPI PUSH1 0x0 DUP2 PUSH1 0x0 DUP6 DUP2 MSTORE PUSH1 0x20 ADD SWAP1 DUP2 MSTORE PUSH1 0x20 ADD PUSH1 0x0 KECCAK256 SLOAD SWAP1 POP DUP1 DUP3 PUSH1 0x0 DUP6 DUP2 MSTORE PUSH1 0x20 ADD SWAP1 DUP2 MSTORE PUSH1 0x20 ADD PUSH1 0x0 KECCAK256 DUP2 SWAP1 SSTORE POP DUP3 PUSH1 0x7 PUSH1 0x0 DUP4 DUP2 MSTORE PUSH1 0x20 ADD SWAP1 DUP2 MSTORE PUSH1 0x20 ADD PUSH1 0x0 KECCAK256 DUP2 SWAP1 SSTORE POP POP JUMPDEST PUSH1 0x7 PUSH1 0x0 DUP6 DUP2 MSTORE PUSH1 0x20 ADD SWAP1 DUP2 MSTORE PUSH1 0x20 ADD PUSH1 0x0 KECCAK256 PUSH1 0x0 SWAP1 SSTORE DUP1 PUSH1 0x0 DUP5 DUP2 MSTORE PUSH1 0x20 ADD SWAP1 DUP2 MSTORE PUSH1 0x20 ADD PUSH1 0x0 KECCAK256 PUSH1 0x0 SWAP1 SSTORE POP POP POP POP POP JUMP JUMPDEST PUSH1 0x0 PUSH1 0x1 PUSH1 0x8 DUP1 SLOAD SWAP1 POP PUSH2 0x1C97 SWAP2 SWAP1 PUSH2 0x30B6 JUMP JUMPDEST SWAP1 POP PUSH1 0x0 PUSH1 0x9 PUSH1 0x0 DUP5 DUP2 MSTORE PUSH1 0x20 ADD SWAP1 DUP2 MSTORE PUSH1 0x20 ADD PUSH1 0x0 KECCAK256 SLOAD SWAP1 POP PUSH1 0x0 PUSH1 0x8 DUP4 DUP2 SLOAD DUP2 LT PUSH2 0x1CC7 JUMPI PUSH2 0x1CC6 PUSH2 0x2C9D JUMP JUMPDEST JUMPDEST SWAP1 PUSH1 0x0 MSTORE PUSH1 0x20 PUSH1 0x0 KECCAK256 ADD SLOAD SWAP1 POP DUP1 PUSH1 0x8 DUP4 DUP2 SLOAD DUP2 LT PUSH2 0x1CE9 JUMPI PUSH2 0x1CE8 PUSH2 0x2C9D JUMP JUMPDEST JUMPDEST SWAP1 PUSH1 0x0 MSTORE PUSH1 0x20 PUSH1 0x0 KECCAK256 ADD DUP2 SWAP1 SSTORE POP DUP2 PUSH1 0x9 PUSH1 0x0 DUP4 DUP2 MSTORE PUSH1 0x20 ADD SWAP1 DUP2 MSTORE PUSH1 0x20 ADD PUSH1 0x0 KECCAK256 DUP2 SWAP1 SSTORE POP PUSH1 0x9 PUSH1 0x0 DUP6 DUP2 MSTORE PUSH1 0x20 ADD SWAP1 DUP2 MSTORE PUSH1 0x20 ADD PUSH1 0x0 KECCAK256 PUSH1 0x0 SWAP1 SSTORE PUSH1 0x8 DUP1 SLOAD DUP1 PUSH2 0x1D38 JUMPI PUSH2 0x1D37 PUSH2 0x30EA JUMP JUMPDEST JUMPDEST PUSH1 0x1 SWAP1 SUB DUP2 DUP2 SWAP1 PUSH1 0x0 MSTORE PUSH1 0x20 PUSH1 0x0 KECCAK256 ADD PUSH1 0x0 SWAP1 SSTORE SWAP1 SSTORE POP POP POP POP JUMP JUMPDEST PUSH1 0x0 PUSH1 0x1 PUSH2 0x1D61 DUP5 PUSH2 0x96B JUMP JUMPDEST PUSH2 0x1D6B SWAP2 SWAP1 PUSH2 0x30B6 JUMP JUMPDEST SWAP1 POP DUP2 PUSH1 0x6 PUSH1 0x0 DUP6 PUSH20 0xFFFFFFFFFFFFFFFFFFFFFFFFFFFFFFFFFFFFFFFF AND PUSH20 0xFFFFFFFFFFFFFFFFFFFFFFFFFFFFFFFFFFFFFFFF AND DUP2 MSTORE PUSH1 0x20 ADD SWAP1 DUP2 MSTORE PUSH1 0x20 ADD PUSH1 0x0 KECCAK256 PUSH1 0x0 DUP4 DUP2 MSTORE PUSH1 0x20 ADD SWAP1 DUP2 MSTORE PUSH1 0x20 ADD PUSH1 0x0 KECCAK256 DUP2 SWAP1 SSTORE POP DUP1 PUSH1 0x7 PUSH1 0x0 DUP5 DUP2 MSTORE PUSH1 0x20 ADD SWAP1 DUP2 MSTORE PUSH1 0x20 ADD PUSH1 0x0 KECCAK256 DUP2 SWAP1 SSTORE POP POP POP POP JUMP JUMPDEST PUSH1 0x60 PUSH1 0x0 PUSH1 0x1 PUSH2 0x1DEE DUP5 PUSH2 0x214C JUMP JUMPDEST ADD SWAP1 POP PUSH1 0x0 DUP2 PUSH8 0xFFFFFFFFFFFFFFFF DUP2 GT ISZERO PUSH2 0x1E0D JUMPI PUSH2 0x1E0C PUSH2 0x2837 JUMP JUMPDEST JUMPDEST PUSH1 0x40 MLOAD SWAP1 DUP1 DUP3 MSTORE DUP1 PUSH1 0x1F ADD PUSH1 0x1F NOT AND PUSH1 0x20 ADD DUP3 ADD PUSH1 0x40 MSTORE DUP1 ISZERO PUSH2 0x1E3F JUMPI DUP2 PUSH1 0x20 ADD PUSH1 0x1 DUP3 MUL DUP1 CALLDATASIZE DUP4 CALLDATACOPY DUP1 DUP3 ADD SWAP2 POP POP SWAP1 POP JUMPDEST POP SWAP1 POP PUSH1 0x0 DUP3 PUSH1 0x20 ADD DUP3 ADD SWAP1 POP JUMPDEST PUSH1 0x1 ISZERO PUSH2 0x1EA2 JUMPI DUP1 DUP1 PUSH1 0x1 SWAP1 SUB SWAP2 POP POP PUSH32 0x3031323334353637383961626364656600000000000000000000000000000000 PUSH1 0xA DUP7 MOD BYTE DUP2 MSTORE8 PUSH1 0xA DUP6 DUP2 PUSH2 0x1E96 JUMPI PUSH2 0x1E95 PUSH2 0x2C3D JUMP JUMPDEST JUMPDEST DIV SWAP5 POP PUSH1 0x0 DUP6 SUB PUSH2 0x1E4D JUMPI JUMPDEST DUP2 SWAP4 POP POP POP POP SWAP2 SWAP1 POP JUMP JUMPDEST PUSH1 0x0 PUSH20 0xFFFFFFFFFFFFFFFFFFFFFFFFFFFFFFFFFFFFFFFF AND DUP3 PUSH20 0xFFFFFFFFFFFFFFFFFFFFFFFFFFFFFFFFFFFFFFFF AND SUB PUSH2 0x1F1F JUMPI PUSH1 0x0 PUSH1 0x40 MLOAD PUSH32 0x64A0AE9200000000000000000000000000000000000000000000000000000000 DUP2 MSTORE PUSH1 0x4 ADD PUSH2 0x1F16 SWAP2 SWAP1 PUSH2 0x25EF JUMP JUMPDEST PUSH1 0x40 MLOAD DUP1 SWAP2 SUB SWAP1 REVERT JUMPDEST PUSH1 0x0 PUSH2 0x1F2D DUP4 DUP4 PUSH1 0x0 PUSH2 0xE7D JUMP JUMPDEST SWAP1 POP PUSH1 0x0 PUSH20 0xFFFFFFFFFFFFFFFFFFFFFFFFFFFFFFFFFFFFFFFF AND DUP2 PUSH20 0xFFFFFFFFFFFFFFFFFFFFFFFFFFFFFFFFFFFFFFFF AND EQ PUSH2 0x1FA1 JUMPI PUSH1 0x0 PUSH1 0x40 MLOAD PUSH32 0x73C6AC6E00000000000000000000000000000000000000000000000000000000 DUP2 MSTORE PUSH1 0x4 ADD PUSH2 0x1F98 SWAP2 SWAP1 PUSH2 0x25EF JUMP JUMPDEST PUSH1 0x40 MLOAD DUP1 SWAP2 SUB SWAP1 REVERT JUMPDEST POP POP POP JUMP JUMPDEST PUSH1 0x0 PUSH32 0x80AC58CD00000000000000000000000000000000000000000000000000000000 PUSH28 0xFFFFFFFFFFFFFFFFFFFFFFFFFFFFFFFFFFFFFFFFFFFFFFFFFFFFFFFF NOT AND DUP3 PUSH28 0xFFFFFFFFFFFFFFFFFFFFFFFFFFFFFFFFFFFFFFFFFFFFFFFFFFFFFFFF NOT AND EQ DUP1 PUSH2 0x2071 JUMPI POP PUSH32 0x5B5E139F00000000000000000000000000000000000000000000000000000000 PUSH28 0xFFFFFFFFFFFFFFFFFFFFFFFFFFFFFFFFFFFFFFFFFFFFFFFFFFFFFFFF NOT AND DUP3 PUSH28 0xFFFFFFFFFFFFFFFFFFFFFFFFFFFFFFFFFFFFFFFFFFFFFFFFFFFFFFFF NOT AND EQ JUMPDEST DUP1 PUSH2 0x2081 JUMPI POP PUSH2 0x2080 DUP3 PUSH2 0x229F JUMP JUMPDEST JUMPDEST SWAP1 POP SWAP2 SWAP1 POP JUMP JUMPDEST PUSH2 0x2093 DUP4 DUP4 DUP4 PUSH2 0x2309 JUMP JUMPDEST PUSH2 0x2147 JUMPI PUSH1 0x0 PUSH20 0xFFFFFFFFFFFFFFFFFFFFFFFFFFFFFFFFFFFFFFFF AND DUP4 PUSH20 0xFFFFFFFFFFFFFFFFFFFFFFFFFFFFFFFFFFFFFFFF AND SUB PUSH2 0x2108 JUMPI DUP1 PUSH1 0x40 MLOAD PUSH32 0x7E27328900000000000000000000000000000000000000000000000000000000 DUP2 MSTORE PUSH1 0x4 ADD PUSH2 0x20FF SWAP2 SWAP1 PUSH2 0x26BD JUMP JUMPDEST PUSH1 0x40 MLOAD DUP1 SWAP2 SUB SWAP1 REVERT JUMPDEST DUP2 DUP2 PUSH1 0x40 MLOAD PUSH32 0x177E802F00000000000000000000000000000000000000000000000000000000 DUP2 MSTORE PUSH1 0x4 ADD PUSH2 0x213E SWAP3 SWAP2 SWAP1 PUSH2 0x276B JUMP JUMPDEST PUSH1 0x40 MLOAD DUP1 SWAP2 SUB SWAP1 REVERT JUMPDEST POP POP POP JUMP JUMPDEST PUSH1 0x0 DUP1 PUSH1 0x0 SWAP1 POP PUSH27 0x184F03E93FF9F4DAA797ED6E38ED64BF6A1F010000000000000000 DUP4 LT PUSH2 0x21AA JUMPI PUSH27 0x184F03E93FF9F4DAA797ED6E38ED64BF6A1F010000000000000000 DUP4 DUP2 PUSH2 0x21A0 JUMPI PUSH2 0x219F PUSH2 0x2C3D JUMP JUMPDEST JUMPDEST DIV SWAP3 POP PUSH1 0x40 DUP2 ADD SWAP1 POP JUMPDEST PUSH14 0x4EE2D6D415B85ACEF8100000000 DUP4 LT PUSH2 0x21E7 JUMPI PUSH14 0x4EE2D6D415B85ACEF8100000000 DUP4 DUP2 PUSH2 0x21DD JUMPI PUSH2 0x21DC PUSH2 0x2C3D JUMP JUMPDEST JUMPDEST DIV SWAP3 POP PUSH1 0x20 DUP2 ADD SWAP1 POP JUMPDEST PUSH7 0x2386F26FC10000 DUP4 LT PUSH2 0x2216 JUMPI PUSH7 0x2386F26FC10000 DUP4 DUP2 PUSH2 0x220C JUMPI PUSH2 0x220B PUSH2 0x2C3D JUMP JUMPDEST JUMPDEST DIV SWAP3 POP PUSH1 0x10 DUP2 ADD SWAP1 POP JUMPDEST PUSH4 0x5F5E100 DUP4 LT PUSH2 0x223F JUMPI PUSH4 0x5F5E100 DUP4 DUP2 PUSH2 0x2235 JUMPI PUSH2 0x2234 PUSH2 0x2C3D JUMP JUMPDEST JUMPDEST DIV SWAP3 POP PUSH1 0x8 DUP2 ADD SWAP1 POP JUMPDEST PUSH2 0x2710 DUP4 LT PUSH2 0x2264 JUMPI PUSH2 0x2710 DUP4 DUP2 PUSH2 0x225A JUMPI PUSH2 0x2259 PUSH2 0x2C3D JUMP JUMPDEST JUMPDEST DIV SWAP3 POP PUSH1 0x4 DUP2 ADD SWAP1 POP JUMPDEST PUSH1 0x64 DUP4 LT PUSH2 0x2287 JUMPI PUSH1 0x64 DUP4 DUP2 PUSH2 0x227D JUMPI PUSH2 0x227C PUSH2 0x2C3D JUMP JUMPDEST JUMPDEST DIV SWAP3 POP PUSH1 0x2 DUP2 ADD SWAP1 POP JUMPDEST PUSH1 0xA DUP4 LT PUSH2 0x2296 JUMPI PUSH1 0x1 DUP2 ADD SWAP1 POP JUMPDEST DUP1 SWAP2 POP POP SWAP2 SWAP1 POP JUMP JUMPDEST PUSH1 0x0 PUSH32 0x1FFC9A700000000000000000000000000000000000000000000000000000000 PUSH28 0xFFFFFFFFFFFFFFFFFFFFFFFFFFFFFFFFFFFFFFFFFFFFFFFFFFFFFFFF NOT AND DUP3 PUSH28 0xFFFFFFFFFFFFFFFFFFFFFFFFFFFFFFFFFFFFFFFFFFFFFFFFFFFFFFFF NOT AND EQ SWAP1 POP SWAP2 SWAP1 POP JUMP JUMPDEST PUSH1 0x0 DUP1 PUSH20 0xFFFFFFFFFFFFFFFFFFFFFFFFFFFFFFFFFFFFFFFF AND DUP4 PUSH20 0xFFFFFFFFFFFFFFFFFFFFFFFFFFFFFFFFFFFFFFFF AND EQ ISZERO DUP1 ISZERO PUSH2 0x23C1 JUMPI POP DUP3 PUSH20 0xFFFFFFFFFFFFFFFFFFFFFFFFFFFFFFFFFFFFFFFF AND DUP5 PUSH20 0xFFFFFFFFFFFFFFFFFFFFFFFFFFFFFFFFFFFFFFFF AND EQ DUP1 PUSH2 0x2382 JUMPI POP PUSH2 0x2381 DUP5 DUP5 PUSH2 0xC0A JUMP JUMPDEST JUMPDEST DUP1 PUSH2 0x23C0 JUMPI POP DUP3 PUSH20 0xFFFFFFFFFFFFFFFFFFFFFFFFFFFFFFFFFFFFFFFF AND PUSH2 0x23A8 DUP4 PUSH2 0xE26 JUMP JUMPDEST PUSH20 0xFFFFFFFFFFFFFFFFFFFFFFFFFFFFFFFFFFFFFFFF AND EQ JUMPDEST JUMPDEST SWAP1 POP SWAP4 SWAP3 POP POP POP JUMP JUMPDEST PUSH1 0x0 PUSH1 0x40 MLOAD SWAP1 POP SWAP1 JUMP JUMPDEST PUSH1 0x0 DUP1 REVERT JUMPDEST PUSH1 0x0 DUP1 REVERT JUMPDEST PUSH1 0x0 PUSH32 0xFFFFFFFF00000000000000000000000000000000000000000000000000000000 DUP3 AND SWAP1 POP SWAP2 SWAP1 POP JUMP JUMPDEST PUSH2 0x2413 DUP2 PUSH2 0x23DE JUMP JUMPDEST DUP2 EQ PUSH2 0x241E JUMPI PUSH1 0x0 DUP1 REVERT JUMPDEST POP JUMP JUMPDEST PUSH1 0x0 DUP2 CALLDATALOAD SWAP1 POP PUSH2 0x2430 DUP2 PUSH2 0x240A JUMP JUMPDEST SWAP3 SWAP2 POP POP JUMP JUMPDEST PUSH1 0x0 PUSH1 0x20 DUP3 DUP5 SUB SLT ISZERO PUSH2 0x244C JUMPI PUSH2 0x244B PUSH2 0x23D4 JUMP JUMPDEST JUMPDEST PUSH1 0x0 PUSH2 0x245A DUP5 DUP3 DUP6 ADD PUSH2 0x2421 JUMP JUMPDEST SWAP2 POP POP SWAP3 SWAP2 POP POP JUMP JUMPDEST PUSH1 0x0 DUP2 ISZERO ISZERO SWAP1 POP SWAP2 SWAP1 POP JUMP JUMPDEST PUSH2 0x2478 DUP2 PUSH2 0x2463 JUMP JUMPDEST DUP3 MSTORE POP POP JUMP JUMPDEST PUSH1 0x0 PUSH1 0x20 DUP3 ADD SWAP1 POP PUSH2 0x2493 PUSH1 0x0 DUP4 ADD DUP5 PUSH2 0x246F JUMP JUMPDEST SWAP3 SWAP2 POP POP JUMP JUMPDEST PUSH1 0x0 DUP2 MLOAD SWAP1 POP SWAP2 SWAP1 POP JUMP JUMPDEST PUSH1 0x0 DUP3 DUP3 MSTORE PUSH1 0x20 DUP3 ADD SWAP1 POP SWAP3 SWAP2 POP POP JUMP JUMPDEST PUSH1 0x0 JUMPDEST DUP4 DUP2 LT ISZERO PUSH2 0x24D3 JUMPI DUP1 DUP3 ADD MLOAD DUP2 DUP5 ADD MSTORE PUSH1 0x20 DUP2 ADD SWAP1 POP PUSH2 0x24B8 JUMP JUMPDEST PUSH1 0x0 DUP5 DUP5 ADD MSTORE POP POP POP POP JUMP JUMPDEST PUSH1 0x0 PUSH1 0x1F NOT PUSH1 0x1F DUP4 ADD AND SWAP1 POP SWAP2 SWAP1 POP JUMP JUMPDEST PUSH1 0x0 PUSH2 0x24FB DUP3 PUSH2 0x2499 JUMP JUMPDEST PUSH2 0x2505 DUP2 DUP6 PUSH2 0x24A4 JUMP JUMPDEST SWAP4 POP PUSH2 0x2515 DUP2 DUP6 PUSH1 0x20 DUP7 ADD PUSH2 0x24B5 JUMP JUMPDEST PUSH2 0x251E DUP2 PUSH2 0x24DF JUMP JUMPDEST DUP5 ADD SWAP2 POP POP SWAP3 SWAP2 POP POP JUMP JUMPDEST PUSH1 0x0 PUSH1 0x20 DUP3 ADD SWAP1 POP DUP2 DUP2 SUB PUSH1 0x0 DUP4 ADD MSTORE PUSH2 0x2543 DUP2 DUP5 PUSH2 0x24F0 JUMP JUMPDEST SWAP1 POP SWAP3 SWAP2 POP POP JUMP JUMPDEST PUSH1 0x0 DUP2 SWAP1 POP SWAP2 SWAP1 POP JUMP JUMPDEST PUSH2 0x255E DUP2 PUSH2 0x254B JUMP JUMPDEST DUP2 EQ PUSH2 0x2569 JUMPI PUSH1 0x0 DUP1 REVERT JUMPDEST POP JUMP JUMPDEST PUSH1 0x0 DUP2 CALLDATALOAD SWAP1 POP PUSH2 0x257B DUP2 PUSH2 0x2555 JUMP JUMPDEST SWAP3 SWAP2 POP POP JUMP JUMPDEST PUSH1 0x0 PUSH1 0x20 DUP3 DUP5 SUB SLT ISZERO PUSH2 0x2597 JUMPI PUSH2 0x2596 PUSH2 0x23D4 JUMP JUMPDEST JUMPDEST PUSH1 0x0 PUSH2 0x25A5 DUP5 DUP3 DUP6 ADD PUSH2 0x256C JUMP JUMPDEST SWAP2 POP POP SWAP3 SWAP2 POP POP JUMP JUMPDEST PUSH1 0x0 PUSH20 0xFFFFFFFFFFFFFFFFFFFFFFFFFFFFFFFFFFFFFFFF DUP3 AND SWAP1 POP SWAP2 SWAP1 POP JUMP JUMPDEST PUSH1 0x0 PUSH2 0x25D9 DUP3 PUSH2 0x25AE JUMP JUMPDEST SWAP1 POP SWAP2 SWAP1 POP JUMP JUMPDEST PUSH2 0x25E9 DUP2 PUSH2 0x25CE JUMP JUMPDEST DUP3 MSTORE POP POP JUMP JUMPDEST PUSH1 0x0 PUSH1 0x20 DUP3 ADD SWAP1 POP PUSH2 0x2604 PUSH1 0x0 DUP4 ADD DUP5 PUSH2 0x25E0 JUMP JUMPDEST SWAP3 SWAP2 POP POP JUMP JUMPDEST PUSH2 0x2613 DUP2 PUSH2 0x25CE JUMP JUMPDEST DUP2 EQ PUSH2 0x261E JUMPI PUSH1 0x0 DUP1 REVERT JUMPDEST POP JUMP JUMPDEST PUSH1 0x0 DUP2 CALLDATALOAD SWAP1 POP PUSH2 0x2630 DUP2 PUSH2 0x260A JUMP JUMPDEST SWAP3 SWAP2 POP POP JUMP JUMPDEST PUSH1 0x0 DUP1 PUSH1 0x40 DUP4 DUP6 SUB SLT ISZERO PUSH2 0x264D JUMPI PUSH2 0x264C PUSH2 0x23D4 JUMP JUMPDEST JUMPDEST PUSH1 0x0 PUSH2 0x265B DUP6 DUP3 DUP7 ADD PUSH2 0x2621 JUMP JUMPDEST SWAP3 POP POP PUSH1 0x20 PUSH2 0x266C DUP6 DUP3 DUP7 ADD PUSH2 0x256C JUMP JUMPDEST SWAP2 POP POP SWAP3 POP SWAP3 SWAP1 POP JUMP JUMPDEST PUSH2 0x267F DUP2 PUSH2 0x23DE JUMP JUMPDEST DUP3 MSTORE POP POP JUMP JUMPDEST PUSH1 0x0 PUSH1 0x40 DUP3 ADD SWAP1 POP PUSH2 0x269A PUSH1 0x0 DUP4 ADD DUP6 PUSH2 0x2676 JUMP JUMPDEST PUSH2 0x26A7 PUSH1 0x20 DUP4 ADD DUP5 PUSH2 0x246F JUMP JUMPDEST SWAP4 SWAP3 POP POP POP JUMP JUMPDEST PUSH2 0x26B7 DUP2 PUSH2 0x254B JUMP JUMPDEST DUP3 MSTORE POP POP JUMP JUMPDEST PUSH1 0x0 PUSH1 0x20 DUP3 ADD SWAP1 POP PUSH2 0x26D2 PUSH1 0x0 DUP4 ADD DUP5 PUSH2 0x26AE JUMP JUMPDEST SWAP3 SWAP2 POP POP JUMP JUMPDEST PUSH1 0x0 DUP1 PUSH1 0x0 PUSH1 0x60 DUP5 DUP7 SUB SLT ISZERO PUSH2 0x26F1 JUMPI PUSH2 0x26F0 PUSH2 0x23D4 JUMP JUMPDEST JUMPDEST PUSH1 0x0 PUSH2 0x26FF DUP7 DUP3 DUP8 ADD PUSH2 0x2621 JUMP JUMPDEST SWAP4 POP POP PUSH1 0x20 PUSH2 0x2710 DUP7 DUP3 DUP8 ADD PUSH2 0x2621 JUMP JUMPDEST SWAP3 POP POP PUSH1 0x40 PUSH2 0x2721 DUP7 DUP3 DUP8 ADD PUSH2 0x256C JUMP JUMPDEST SWAP2 POP POP SWAP3 POP SWAP3 POP SWAP3 JUMP JUMPDEST PUSH1 0x0 DUP1 PUSH1 0x40 DUP4 DUP6 SUB SLT ISZERO PUSH2 0x2742 JUMPI PUSH2 0x2741 PUSH2 0x23D4 JUMP JUMPDEST JUMPDEST PUSH1 0x0 PUSH2 0x2750 DUP6 DUP3 DUP7 ADD PUSH2 0x256C JUMP JUMPDEST SWAP3 POP POP PUSH1 0x20 PUSH2 0x2761 DUP6 DUP3 DUP7 ADD PUSH2 0x256C JUMP JUMPDEST SWAP2 POP POP SWAP3 POP SWAP3 SWAP1 POP JUMP JUMPDEST PUSH1 0x0 PUSH1 0x40 DUP3 ADD SWAP1 POP PUSH2 0x2780 PUSH1 0x0 DUP4 ADD DUP6 PUSH2 0x25E0 JUMP JUMPDEST PUSH2 0x278D PUSH1 0x20 DUP4 ADD DUP5 PUSH2 0x26AE JUMP JUMPDEST SWAP4 SWAP3 POP POP POP JUMP JUMPDEST PUSH1 0x0 PUSH1 0x20 DUP3 DUP5 SUB SLT ISZERO PUSH2 0x27AA JUMPI PUSH2 0x27A9 PUSH2 0x23D4 JUMP JUMPDEST JUMPDEST PUSH1 0x0 PUSH2 0x27B8 DUP5 DUP3 DUP6 ADD PUSH2 0x2621 JUMP JUMPDEST SWAP2 POP POP SWAP3 SWAP2 POP POP JUMP JUMPDEST PUSH2 0x27CA DUP2 PUSH2 0x2463 JUMP JUMPDEST DUP2 EQ PUSH2 0x27D5 JUMPI PUSH1 0x0 DUP1 REVERT JUMPDEST POP JUMP JUMPDEST PUSH1 0x0 DUP2 CALLDATALOAD SWAP1 POP PUSH2 0x27E7 DUP2 PUSH2 0x27C1 JUMP JUMPDEST SWAP3 SWAP2 POP POP JUMP JUMPDEST PUSH1 0x0 DUP1 PUSH1 0x40 DUP4 DUP6 SUB SLT ISZERO PUSH2 0x2804 JUMPI PUSH2 0x2803 PUSH2 0x23D4 JUMP JUMPDEST JUMPDEST PUSH1 0x0 PUSH2 0x2812 DUP6 DUP3 DUP7 ADD PUSH2 0x2621 JUMP JUMPDEST SWAP3 POP POP PUSH1 0x20 PUSH2 0x2823 DUP6 DUP3 DUP7 ADD PUSH2 0x27D8 JUMP JUMPDEST SWAP2 POP POP SWAP3 POP SWAP3 SWAP1 POP JUMP JUMPDEST PUSH1 0x0 DUP1 REVERT JUMPDEST PUSH1 0x0 DUP1 REVERT JUMPDEST PUSH32 0x4E487B7100000000000000000000000000000000000000000000000000000000 PUSH1 0x0 MSTORE PUSH1 0x41 PUSH1 0x4 MSTORE PUSH1 0x24 PUSH1 0x0 REVERT JUMPDEST PUSH2 0x286F DUP3 PUSH2 0x24DF JUMP JUMPDEST DUP2 ADD DUP2 DUP2 LT PUSH8 0xFFFFFFFFFFFFFFFF DUP3 GT OR ISZERO PUSH2 0x288E JUMPI PUSH2 0x288D PUSH2 0x2837 JUMP JUMPDEST JUMPDEST DUP1 PUSH1 0x40 MSTORE POP POP POP JUMP JUMPDEST PUSH1 0x0 PUSH2 0x28A1 PUSH2 0x23CA JUMP JUMPDEST SWAP1 POP PUSH2 0x28AD DUP3 DUP3 PUSH2 0x2866 JUMP JUMPDEST SWAP2 SWAP1 POP JUMP JUMPDEST PUSH1 0x0 PUSH8 0xFFFFFFFFFFFFFFFF DUP3 GT ISZERO PUSH2 0x28CD JUMPI PUSH2 0x28CC PUSH2 0x2837 JUMP JUMPDEST JUMPDEST PUSH2 0x28D6 DUP3 PUSH2 0x24DF JUMP JUMPDEST SWAP1 POP PUSH1 0x20 DUP2 ADD SWAP1 POP SWAP2 SWAP1 POP JUMP JUMPDEST DUP3 DUP2 DUP4 CALLDATACOPY PUSH1 0x0 DUP4 DUP4 ADD MSTORE POP POP POP JUMP JUMPDEST PUSH1 0x0 PUSH2 0x2905 PUSH2 0x2900 DUP5 PUSH2 0x28B2 JUMP JUMPDEST PUSH2 0x2897 JUMP JUMPDEST SWAP1 POP DUP3 DUP2 MSTORE PUSH1 0x20 DUP2 ADD DUP5 DUP5 DUP5 ADD GT ISZERO PUSH2 0x2921 JUMPI PUSH2 0x2920 PUSH2 0x2832 JUMP JUMPDEST JUMPDEST PUSH2 0x292C DUP5 DUP3 DUP6 PUSH2 0x28E3 JUMP JUMPDEST POP SWAP4 SWAP3 POP POP POP JUMP JUMPDEST PUSH1 0x0 DUP3 PUSH1 0x1F DUP4 ADD SLT PUSH2 0x2949 JUMPI PUSH2 0x2948 PUSH2 0x282D JUMP JUMPDEST JUMPDEST DUP2 CALLDATALOAD PUSH2 0x2959 DUP5 DUP3 PUSH1 0x20 DUP7 ADD PUSH2 0x28F2 JUMP JUMPDEST SWAP2 POP POP SWAP3 SWAP2 POP POP JUMP JUMPDEST PUSH1 0x0 DUP1 PUSH1 0x0 DUP1 PUSH1 0x80 DUP6 DUP8 SUB SLT ISZERO PUSH2 0x297C JUMPI PUSH2 0x297B PUSH2 0x23D4 JUMP JUMPDEST JUMPDEST PUSH1 0x0 PUSH2 0x298A DUP8 DUP3 DUP9 ADD PUSH2 0x2621 JUMP JUMPDEST SWAP5 POP POP PUSH1 0x20 PUSH2 0x299B DUP8 DUP3 DUP9 ADD PUSH2 0x2621 JUMP JUMPDEST SWAP4 POP POP PUSH1 0x40 PUSH2 0x29AC DUP8 DUP3 DUP9 ADD PUSH2 0x256C JUMP JUMPDEST SWAP3 POP POP PUSH1 0x60 DUP6 ADD CALLDATALOAD PUSH8 0xFFFFFFFFFFFFFFFF DUP2 GT ISZERO PUSH2 0x29CD JUMPI PUSH2 0x29CC PUSH2 0x23D9 JUMP JUMPDEST JUMPDEST PUSH2 0x29D9 DUP8 DUP3 DUP9 ADD PUSH2 0x2934 JUMP JUMPDEST SWAP2 POP POP SWAP3 SWAP6 SWAP2 SWAP5 POP SWAP3 POP JUMP JUMPDEST PUSH1 0x0 PUSH8 0xFFFFFFFFFFFFFFFF DUP3 GT ISZERO PUSH2 0x2A00 JUMPI PUSH2 0x29FF PUSH2 0x2837 JUMP JUMPDEST JUMPDEST PUSH2 0x2A09 DUP3 PUSH2 0x24DF JUMP JUMPDEST SWAP1 POP PUSH1 0x20 DUP2 ADD SWAP1 POP SWAP2 SWAP1 POP JUMP JUMPDEST PUSH1 0x0 PUSH2 0x2A29 PUSH2 0x2A24 DUP5 PUSH2 0x29E5 JUMP JUMPDEST PUSH2 0x2897 JUMP JUMPDEST SWAP1 POP DUP3 DUP2 MSTORE PUSH1 0x20 DUP2 ADD DUP5 DUP5 DUP5 ADD GT ISZERO PUSH2 0x2A45 JUMPI PUSH2 0x2A44 PUSH2 0x2832 JUMP JUMPDEST JUMPDEST PUSH2 0x2A50 DUP5 DUP3 DUP6 PUSH2 0x28E3 JUMP JUMPDEST POP SWAP4 SWAP3 POP POP POP JUMP JUMPDEST PUSH1 0x0 DUP3 PUSH1 0x1F DUP4 ADD SLT PUSH2 0x2A6D JUMPI PUSH2 0x2A6C PUSH2 0x282D JUMP JUMPDEST JUMPDEST DUP2 CALLDATALOAD PUSH2 0x2A7D DUP5 DUP3 PUSH1 0x20 DUP7 ADD PUSH2 0x2A16 JUMP JUMPDEST SWAP2 POP POP SWAP3 SWAP2 POP POP JUMP JUMPDEST PUSH1 0x0 DUP1 PUSH1 0x0 PUSH1 0x60 DUP5 DUP7 SUB SLT ISZERO PUSH2 0x2A9F JUMPI PUSH2 0x2A9E PUSH2 0x23D4 JUMP JUMPDEST JUMPDEST PUSH1 0x0 PUSH2 0x2AAD DUP7 DUP3 DUP8 ADD PUSH2 0x2621 JUMP JUMPDEST SWAP4 POP POP PUSH1 0x20 PUSH2 0x2ABE DUP7 DUP3 DUP8 ADD PUSH2 0x256C JUMP JUMPDEST SWAP3 POP POP PUSH1 0x40 DUP5 ADD CALLDATALOAD PUSH8 0xFFFFFFFFFFFFFFFF DUP2 GT ISZERO PUSH2 0x2ADF JUMPI PUSH2 0x2ADE PUSH2 0x23D9 JUMP JUMPDEST JUMPDEST PUSH2 0x2AEB DUP7 DUP3 DUP8 ADD PUSH2 0x2A58 JUMP JUMPDEST SWAP2 POP POP SWAP3 POP SWAP3 POP SWAP3 JUMP JUMPDEST PUSH1 0x0 DUP1 PUSH1 0x40 DUP4 DUP6 SUB SLT ISZERO PUSH2 0x2B0C JUMPI PUSH2 0x2B0B PUSH2 0x23D4 JUMP JUMPDEST JUMPDEST PUSH1 0x0 PUSH2 0x2B1A DUP6 DUP3 DUP7 ADD PUSH2 0x2621 JUMP JUMPDEST SWAP3 POP POP PUSH1 0x20 PUSH2 0x2B2B DUP6 DUP3 DUP7 ADD PUSH2 0x2621 JUMP JUMPDEST SWAP2 POP POP SWAP3 POP SWAP3 SWAP1 POP JUMP JUMPDEST PUSH32 0x4E487B7100000000000000000000000000000000000000000000000000000000 PUSH1 0x0 MSTORE PUSH1 0x22 PUSH1 0x4 MSTORE PUSH1 0x24 PUSH1 0x0 REVERT JUMPDEST PUSH1 0x0 PUSH1 0x2 DUP3 DIV SWAP1 POP PUSH1 0x1 DUP3 AND DUP1 PUSH2 0x2B7C JUMPI PUSH1 0x7F DUP3 AND SWAP2 POP JUMPDEST PUSH1 0x20 DUP3 LT DUP2 SUB PUSH2 0x2B8F JUMPI PUSH2 0x2B8E PUSH2 0x2B35 JUMP JUMPDEST JUMPDEST POP SWAP2 SWAP1 POP JUMP JUMPDEST PUSH1 0x0 PUSH1 0x60 DUP3 ADD SWAP1 POP PUSH2 0x2BAA PUSH1 0x0 DUP4 ADD DUP7 PUSH2 0x25E0 JUMP JUMPDEST PUSH2 0x2BB7 PUSH1 0x20 DUP4 ADD DUP6 PUSH2 0x26AE JUMP JUMPDEST PUSH2 0x2BC4 PUSH1 0x40 DUP4 ADD DUP5 PUSH2 0x25E0 JUMP JUMPDEST SWAP5 SWAP4 POP POP POP POP JUMP JUMPDEST PUSH32 0x4E487B7100000000000000000000000000000000000000000000000000000000 PUSH1 0x0 MSTORE PUSH1 0x11 PUSH1 0x4 MSTORE PUSH1 0x24 PUSH1 0x0 REVERT JUMPDEST PUSH1 0x0 PUSH2 0x2C06 DUP3 PUSH2 0x254B JUMP JUMPDEST SWAP2 POP PUSH2 0x2C11 DUP4 PUSH2 0x254B JUMP JUMPDEST SWAP3 POP DUP3 DUP3 MUL PUSH2 0x2C1F DUP2 PUSH2 0x254B JUMP JUMPDEST SWAP2 POP DUP3 DUP3 DIV DUP5 EQ DUP4 ISZERO OR PUSH2 0x2C36 JUMPI PUSH2 0x2C35 PUSH2 0x2BCC JUMP JUMPDEST JUMPDEST POP SWAP3 SWAP2 POP POP JUMP JUMPDEST PUSH32 0x4E487B7100000000000000000000000000000000000000000000000000000000 PUSH1 0x0 MSTORE PUSH1 0x12 PUSH1 0x4 MSTORE PUSH1 0x24 PUSH1 0x0 REVERT JUMPDEST PUSH1 0x0 PUSH2 0x2C77 DUP3 PUSH2 0x254B JUMP JUMPDEST SWAP2 POP PUSH2 0x2C82 DUP4 PUSH2 0x254B JUMP JUMPDEST SWAP3 POP DUP3 PUSH2 0x2C92 JUMPI PUSH2 0x2C91 PUSH2 0x2C3D JUMP JUMPDEST JUMPDEST DUP3 DUP3 DIV SWAP1 POP SWAP3 SWAP2 POP POP JUMP JUMPDEST PUSH32 0x4E487B7100000000000000000000000000000000000000000000000000000000 PUSH1 0x0 MSTORE PUSH1 0x32 PUSH1 0x4 MSTORE PUSH1 0x24 PUSH1 0x0 REVERT JUMPDEST PUSH1 0x0 PUSH1 0x40 DUP3 ADD SWAP1 POP PUSH2 0x2CE1 PUSH1 0x0 DUP4 ADD DUP6 PUSH2 0x25E0 JUMP JUMPDEST PUSH2 0x2CEE PUSH1 0x20 DUP4 ADD DUP5 PUSH2 0x25E0 JUMP JUMPDEST SWAP4 SWAP3 POP POP POP JUMP JUMPDEST PUSH1 0x0 DUP2 MLOAD SWAP1 POP SWAP2 SWAP1 POP JUMP JUMPDEST PUSH1 0x0 DUP3 DUP3 MSTORE PUSH1 0x20 DUP3 ADD SWAP1 POP SWAP3 SWAP2 POP POP JUMP JUMPDEST PUSH1 0x0 PUSH2 0x2D1C DUP3 PUSH2 0x2CF5 JUMP JUMPDEST PUSH2 0x2D26 DUP2 DUP6 PUSH2 0x2D00 JUMP JUMPDEST SWAP4 POP PUSH2 0x2D36 DUP2 DUP6 PUSH1 0x20 DUP7 ADD PUSH2 0x24B5 JUMP JUMPDEST PUSH2 0x2D3F DUP2 PUSH2 0x24DF JUMP JUMPDEST DUP5 ADD SWAP2 POP POP SWAP3 SWAP2 POP POP JUMP JUMPDEST PUSH1 0x0 PUSH1 0x80 DUP3 ADD SWAP1 POP PUSH2 0x2D5F PUSH1 0x0 DUP4 ADD DUP8 PUSH2 0x25E0 JUMP JUMPDEST PUSH2 0x2D6C PUSH1 0x20 DUP4 ADD DUP7 PUSH2 0x25E0 JUMP JUMPDEST PUSH2 0x2D79 PUSH1 0x40 DUP4 ADD DUP6 PUSH2 0x26AE JUMP JUMPDEST DUP2 DUP2 SUB PUSH1 0x60 DUP4 ADD MSTORE PUSH2 0x2D8B DUP2 DUP5 PUSH2 0x2D11 JUMP JUMPDEST SWAP1 POP SWAP6 SWAP5 POP POP POP POP POP JUMP JUMPDEST PUSH1 0x0 DUP2 MLOAD SWAP1 POP PUSH2 0x2DA5 DUP2 PUSH2 0x240A JUMP JUMPDEST SWAP3 SWAP2 POP POP JUMP JUMPDEST PUSH1 0x0 PUSH1 0x20 DUP3 DUP5 SUB SLT ISZERO PUSH2 0x2DC1 JUMPI PUSH2 0x2DC0 PUSH2 0x23D4 JUMP JUMPDEST JUMPDEST PUSH1 0x0 PUSH2 0x2DCF DUP5 DUP3 DUP6 ADD PUSH2 0x2D96 JUMP JUMPDEST SWAP2 POP POP SWAP3 SWAP2 POP POP JUMP JUMPDEST PUSH1 0x0 DUP2 SWAP1 POP SWAP3 SWAP2 POP POP JUMP JUMPDEST PUSH1 0x0 PUSH2 0x2DEE DUP3 PUSH2 0x2499 JUMP JUMPDEST PUSH2 0x2DF8 DUP2 DUP6 PUSH2 0x2DD8 JUMP JUMPDEST SWAP4 POP PUSH2 0x2E08 DUP2 DUP6 PUSH1 0x20 DUP7 ADD PUSH2 0x24B5 JUMP JUMPDEST DUP1 DUP5 ADD SWAP2 POP POP SWAP3 SWAP2 POP POP JUMP JUMPDEST PUSH1 0x0 PUSH2 0x2E20 DUP3 DUP6 PUSH2 0x2DE3 JUMP JUMPDEST SWAP2 POP PUSH2 0x2E2C DUP3 DUP5 PUSH2 0x2DE3 JUMP JUMPDEST SWAP2 POP DUP2 SWAP1 POP SWAP4 SWAP3 POP POP POP JUMP JUMPDEST PUSH1 0x0 DUP2 SWAP1 POP DUP2 PUSH1 0x0 MSTORE PUSH1 0x20 PUSH1 0x0 KECCAK256 SWAP1 POP SWAP2 SWAP1 POP JUMP JUMPDEST PUSH1 0x0 PUSH1 0x20 PUSH1 0x1F DUP4 ADD DIV SWAP1 POP SWAP2 SWAP1 POP JUMP JUMPDEST PUSH1 0x0 DUP3 DUP3 SHL SWAP1 POP SWAP3 SWAP2 POP POP JUMP JUMPDEST PUSH1 0x0 PUSH1 0x8 DUP4 MUL PUSH2 0x2E9A PUSH32 0xFFFFFFFFFFFFFFFFFFFFFFFFFFFFFFFFFFFFFFFFFFFFFFFFFFFFFFFFFFFFFFFF DUP3 PUSH2 0x2E5D JUMP JUMPDEST PUSH2 0x2EA4 DUP7 DUP4 PUSH2 0x2E5D JUMP JUMPDEST SWAP6 POP DUP1 NOT DUP5 AND SWAP4 POP DUP1 DUP7 AND DUP5 OR SWAP3 POP POP POP SWAP4 SWAP3 POP POP POP JUMP JUMPDEST PUSH1 0x0 DUP2 SWAP1 POP SWAP2 SWAP1 POP JUMP JUMPDEST PUSH1 0x0 PUSH2 0x2EE1 PUSH2 0x2EDC PUSH2 0x2ED7 DUP5 PUSH2 0x254B JUMP JUMPDEST PUSH2 0x2EBC JUMP JUMPDEST PUSH2 0x254B JUMP JUMPDEST SWAP1 POP SWAP2 SWAP1 POP JUMP JUMPDEST PUSH1 0x0 DUP2 SWAP1 POP SWAP2 SWAP1 POP JUMP JUMPDEST PUSH2 0x2EFB DUP4 PUSH2 0x2EC6 JUMP JUMPDEST PUSH2 0x2F0F PUSH2 0x2F07 DUP3 PUSH2 0x2EE8 JUMP JUMPDEST DUP5 DUP5 SLOAD PUSH2 0x2E6A JUMP JUMPDEST DUP3 SSTORE POP POP POP POP JUMP JUMPDEST PUSH1 0x0 SWAP1 JUMP JUMPDEST PUSH2 0x2F24 PUSH2 0x2F17 JUMP JUMPDEST PUSH2 0x2F2F DUP2 DUP5 DUP5 PUSH2 0x2EF2 JUMP JUMPDEST POP POP POP JUMP JUMPDEST JUMPDEST DUP2 DUP2 LT ISZERO PUSH2 0x2F53 JUMPI PUSH2 0x2F48 PUSH1 0x0 DUP3 PUSH2 0x2F1C JUMP JUMPDEST PUSH1 0x1 DUP2 ADD SWAP1 POP PUSH2 0x2F35 JUMP JUMPDEST POP POP JUMP JUMPDEST PUSH1 0x1F DUP3 GT ISZERO PUSH2 0x2F98 JUMPI PUSH2 0x2F69 DUP2 PUSH2 0x2E38 JUMP JUMPDEST PUSH2 0x2F72 DUP5 PUSH2 0x2E4D JUMP JUMPDEST DUP2 ADD PUSH1 0x20 DUP6 LT ISZERO PUSH2 0x2F81 JUMPI DUP2 SWAP1 POP JUMPDEST PUSH2 0x2F95 PUSH2 0x2F8D DUP6 PUSH2 0x2E4D JUMP JUMPDEST DUP4 ADD DUP3 PUSH2 0x2F34 JUMP JUMPDEST POP POP JUMPDEST POP POP POP JUMP JUMPDEST PUSH1 0x0 DUP3 DUP3 SHR SWAP1 POP SWAP3 SWAP2 POP POP JUMP JUMPDEST PUSH1 0x0 PUSH2 0x2FBB PUSH1 0x0 NOT DUP5 PUSH1 0x8 MUL PUSH2 0x2F9D JUMP JUMPDEST NOT DUP1 DUP4 AND SWAP2 POP POP SWAP3 SWAP2 POP POP JUMP JUMPDEST PUSH1 0x0 PUSH2 0x2FD4 DUP4 DUP4 PUSH2 0x2FAA JUMP JUMPDEST SWAP2 POP DUP3 PUSH1 0x2 MUL DUP3 OR SWAP1 POP SWAP3 SWAP2 POP POP JUMP JUMPDEST PUSH2 0x2FED DUP3 PUSH2 0x2499 JUMP JUMPDEST PUSH8 0xFFFFFFFFFFFFFFFF DUP2 GT ISZERO PUSH2 0x3006 JUMPI PUSH2 0x3005 PUSH2 0x2837 JUMP JUMPDEST JUMPDEST PUSH2 0x3010 DUP3 SLOAD PUSH2 0x2B64 JUMP JUMPDEST PUSH2 0x301B DUP3 DUP3 DUP6 PUSH2 0x2F57 JUMP JUMPDEST PUSH1 0x0 PUSH1 0x20 SWAP1 POP PUSH1 0x1F DUP4 GT PUSH1 0x1 DUP2 EQ PUSH2 0x304E JUMPI PUSH1 0x0 DUP5 ISZERO PUSH2 0x303C JUMPI DUP3 DUP8 ADD MLOAD SWAP1 POP JUMPDEST PUSH2 0x3046 DUP6 DUP3 PUSH2 0x2FC8 JUMP JUMPDEST DUP7 SSTORE POP PUSH2 0x30AE JUMP JUMPDEST PUSH1 0x1F NOT DUP5 AND PUSH2 0x305C DUP7 PUSH2 0x2E38 JUMP JUMPDEST PUSH1 0x0 JUMPDEST DUP3 DUP2 LT ISZERO PUSH2 0x3084 JUMPI DUP5 DUP10 ADD MLOAD DUP3 SSTORE PUSH1 0x1 DUP3 ADD SWAP2 POP PUSH1 0x20 DUP6 ADD SWAP5 POP PUSH1 0x20 DUP2 ADD SWAP1 POP PUSH2 0x305F JUMP JUMPDEST DUP7 DUP4 LT ISZERO PUSH2 0x30A1 JUMPI DUP5 DUP10 ADD MLOAD PUSH2 0x309D PUSH1 0x1F DUP10 AND DUP3 PUSH2 0x2FAA JUMP JUMPDEST DUP4 SSTORE POP JUMPDEST PUSH1 0x1 PUSH1 0x2 DUP9 MUL ADD DUP9 SSTORE POP POP POP JUMPDEST POP POP POP POP POP POP JUMP JUMPDEST PUSH1 0x0 PUSH2 0x30C1 DUP3 PUSH2 0x254B JUMP JUMPDEST SWAP2 POP PUSH2 0x30CC DUP4 PUSH2 0x254B JUMP JUMPDEST SWAP3 POP DUP3 DUP3 SUB SWAP1 POP DUP2 DUP2 GT ISZERO PUSH2 0x30E4 JUMPI PUSH2 0x30E3 PUSH2 0x2BCC JUMP JUMPDEST JUMPDEST SWAP3 SWAP2 POP POP JUMP JUMPDEST PUSH32 0x4E487B7100000000000000000000000000000000000000000000000000000000 PUSH1 0x0 MSTORE PUSH1 0x31 PUSH1 0x4 MSTORE PUSH1 0x24 PUSH1 0x0 REVERT INVALID LOG2 PUSH5 0x6970667358 0x22 SLT KECCAK256 PUSH4 0x470508B2 PUSH11 0x9D7F9C343EF9E0270043C3 LOG1 0xDB SLOAD 0xA8 0xD2 PUSH22 0xD2FC6C8A4D60B933DE64736F6C634300081B00330000 "},"methodIdentifiers":{"approve(address,uint256)":"095ea7b3","balanceOf(address)":"70a08231","getApproved(uint256)":"081812fc","getTransferValidationFunction()":"0d705df6","getTransferValidator()":"098144d4","isApprovedForAll(address,address)":"e985e9c5","name()":"06fdde03","owner()":"8da5cb5b","ownerOf(uint256)":"6352211e","renounceOwnership()":"715018a6","royaltyInfo(uint256,uint256)":"2a55205a","safeMint(address,uint256,string)":"cd279c7c","safeTransferFrom(address,address,uint256)":"42842e0e","safeTransferFrom(address,address,uint256,bytes)":"b88d4fde","setApprovalForAll(address,bool)":"a22cb465","setTransferValidator(address)":"a9fc664e","supportsInterface(bytes4)":"01ffc9a7","symbol()":"95d89b41","tokenByIndex(uint256)":"4f6ccce7","tokenOfOwnerByIndex(address,uint256)":"2f745c59","tokenURI(uint256)":"c87b56dd","totalSupply()":"18160ddd","transferFrom(address,address,uint256)":"23b872dd","transferOwnership(address)":"f2fde38b"}}}}}