{
  "_format": "hh-sol-artifact-1",
  "contractName": "CreatorTokenTransferValidator",
  "sourceName": "contracts/CreatorTokenTransferValidator.sol",
  "abi": [
    {
      "inputs": [
        {
          "internalType": "address",
          "name": "defaultOwner",
          "type": "address"
        },
        {
          "internalType": "address",
          "name": "eoaRegistry",
          "type": "address"
        },
        {
          "internalType": "string",
          "name": "name",
          "type": "string"
        },
        {
          "internalType": "string",
          "name": "version",
          "type": "string"
        }
      ],
      "stateMutability": "nonpayable",
      "type": "constructor"
    },
    {
      "inputs": [],
      "name": "CreatorTokenTransferValidator__CallerMustBeWhitelisted",
      "type": "error"
    },
    {
      "inputs": [],
      "name": "CreatorTokenTransferValidator__InvalidSecurityLevel",
      "type": "error"
    },
    {
      "inputs": [],
      "name": "CreatorTokenTransferValidator__InvalidWhitelistId",
      "type": "error"
    },
    {
      "inputs": [
        {
          "internalType": "address",
          "name": "owner",
          "type": "address"
        }
      ],
      "name": "OwnableInvalidOwner",
      "type": "error"
    },
    {
      "inputs": [
        {
          "internalType": "address",
          "name": "account",
          "type": "address"
        }
      ],
      "name": "OwnableUnauthorizedAccount",
      "type": "error"
    },
    {
      "anonymous": false,
      "inputs": [
        {
          "indexed": true,
          "internalType": "address",
          "name": "previousOwner",
          "type": "address"
        },
        {
          "indexed": true,
          "internalType": "address",
          "name": "newOwner",
          "type": "address"
        }
      ],
      "name": "OwnershipTransferred",
      "type": "event"
    },
    {
      "inputs": [],
      "name": "LEVEL_0",
      "outputs": [
        {
          "internalType": "uint8",
          "name": "",
          "type": "uint8"
        }
      ],
      "stateMutability": "view",
      "type": "function"
    },
    {
      "inputs": [],
      "name": "LEVEL_1",
      "outputs": [
        {
          "internalType": "uint8",
          "name": "",
          "type": "uint8"
        }
      ],
      "stateMutability": "view",
      "type": "function"
    },
    {
      "inputs": [],
      "name": "LEVEL_2",
      "outputs": [
        {
          "internalType": "uint8",
          "name": "",
          "type": "uint8"
        }
      ],
      "stateMutability": "view",
      "type": "function"
    },
    {
      "inputs": [],
      "name": "LEVEL_3",
      "outputs": [
        {
          "internalType": "uint8",
          "name": "",
          "type": "uint8"
        }
      ],
      "stateMutability": "view",
      "type": "function"
    },
    {
      "inputs": [],
      "name": "OPERATOR_BLACKLIST",
      "outputs": [
        {
          "internalType": "uint8",
          "name": "",
          "type": "uint8"
        }
      ],
      "stateMutability": "view",
      "type": "function"
    },
    {
      "inputs": [],
      "name": "OPERATOR_WHITELIST",
      "outputs": [
        {
          "internalType": "uint8",
          "name": "",
          "type": "uint8"
        }
      ],
      "stateMutability": "view",
      "type": "function"
    },
    {
      "inputs": [
        {
          "internalType": "uint8",
          "name": "whitelistId",
          "type": "uint8"
        },
        {
          "internalType": "address[]",
          "name": "accounts",
          "type": "address[]"
        }
      ],
      "name": "addAccountsToWhitelist",
      "outputs": [],
      "stateMutability": "nonpayable",
      "type": "function"
    },
    {
      "inputs": [
        {
          "internalType": "address",
          "name": "",
          "type": "address"
        }
      ],
      "name": "collectionSecurityPolicies",
      "outputs": [
        {
          "internalType": "uint8",
          "name": "securityLevel",
          "type": "uint8"
        },
        {
          "internalType": "bool",
          "name": "isAuthorizationMode",
          "type": "bool"
        },
        {
          "internalType": "bool",
          "name": "allowWildcardOperators",
          "type": "bool"
        },
        {
          "internalType": "bool",
          "name": "disableAccountFreezing",
          "type": "bool"
        }
      ],
      "stateMutability": "view",
      "type": "function"
    },
    {
      "inputs": [],
      "name": "owner",
      "outputs": [
        {
          "internalType": "address",
          "name": "",
          "type": "address"
        }
      ],
      "stateMutability": "view",
      "type": "function"
    },
    {
      "inputs": [
        {
          "internalType": "uint8",
          "name": "whitelistId",
          "type": "uint8"
        },
        {
          "internalType": "address[]",
          "name": "accounts",
          "type": "address[]"
        }
      ],
      "name": "removeAccountsFromWhitelist",
      "outputs": [],
      "stateMutability": "nonpayable",
      "type": "function"
    },
    {
      "inputs": [],
      "name": "renounceOwnership",
      "outputs": [],
      "stateMutability": "nonpayable",
      "type": "function"
    },
    {
      "inputs": [
        {
          "internalType": "address",
          "name": "collection",
          "type": "address"
        },
        {
          "internalType": "uint8",
          "name": "level",
          "type": "uint8"
        },
        {
          "internalType": "bool",
          "name": "isAuthorizationMode",
          "type": "bool"
        },
        {
          "internalType": "bool",
          "name": "allowWildcardOperators",
          "type": "bool"
        },
        {
          "internalType": "bool",
          "name": "disableAccountFreezing",
          "type": "bool"
        }
      ],
      "name": "setTransferSecurityLevelOfCollection",
      "outputs": [],
      "stateMutability": "nonpayable",
      "type": "function"
    },
    {
      "inputs": [
        {
          "internalType": "address",
          "name": "newOwner",
          "type": "address"
        }
      ],
      "name": "transferOwnership",
      "outputs": [],
      "stateMutability": "nonpayable",
      "type": "function"
    },
    {
      "inputs": [
        {
          "internalType": "address",
          "name": "caller",
          "type": "address"
        },
        {
          "internalType": "address",
          "name": "from",
          "type": "address"
        },
        {
          "internalType": "address",
          "name": "to",
          "type": "address"
        },
        {
          "internalType": "uint256",
          "name": "tokenId",
          "type": "uint256"
        }
      ],
      "name": "validateTransfer",
      "outputs": [],
      "stateMutability": "view",
      "type": "function"
    },
    {
      "inputs": [
        {
          "internalType": "address",
          "name": "",
          "type": "address"
        },
        {
          "internalType": "uint8",
          "name": "",
          "type": "uint8"
        },
        {
          "internalType": "address",
          "name": "",
          "type": "address"
        }
      ],
      "name": "whitelistedOperators",
      "outputs": [
        {
          "internalType": "bool",
          "name": "",
          "type": "bool"
        }
      ],
      "stateMutability": "view",
      "type": "function"
    }
  ],
  "bytecode": "0x608060405234801561001057600080fd5b506040516113e53803806113e583398181016040528101906100329190610355565b83600073ffffffffffffffffffffffffffffffffffffffff168173ffffffffffffffffffffffffffffffffffffffff16036100a55760006040517f1e4fbdf700000000000000000000000000000000000000000000000000000000815260040161009c9190610403565b60405180910390fd5b6100b4816100be60201b60201c565b505050505061041e565b60008060009054906101000a900473ffffffffffffffffffffffffffffffffffffffff169050816000806101000a81548173ffffffffffffffffffffffffffffffffffffffff021916908373ffffffffffffffffffffffffffffffffffffffff1602179055508173ffffffffffffffffffffffffffffffffffffffff168173ffffffffffffffffffffffffffffffffffffffff167f8be0079c531659141344cd1fd0a4f28419497f9722a3daafe3b4186f6b6457e060405160405180910390a35050565b6000604051905090565b600080fd5b600080fd5b600073ffffffffffffffffffffffffffffffffffffffff82169050919050565b60006101c182610196565b9050919050565b6101d1816101b6565b81146101dc57600080fd5b50565b6000815190506101ee816101c8565b92915050565b600080fd5b600080fd5b6000601f19601f8301169050919050565b7f4e487b7100000000000000000000000000000000000000000000000000000000600052604160045260246000fd5b610247826101fe565b810181811067ffffffffffffffff821117156102665761026561020f565b5b80604052505050565b6000610279610182565b9050610285828261023e565b919050565b600067ffffffffffffffff8211156102a5576102a461020f565b5b6102ae826101fe565b9050602081019050919050565b60005b838110156102d95780820151818401526020810190506102be565b60008484015250505050565b60006102f86102f38461028a565b61026f565b905082815260208101848484011115610314576103136101f9565b5b61031f8482856102bb565b509392505050565b600082601f83011261033c5761033b6101f4565b5b815161034c8482602086016102e5565b91505092915050565b6000806000806080858703121561036f5761036e61018c565b5b600061037d878288016101df565b945050602061038e878288016101df565b935050604085015167ffffffffffffffff8111156103af576103ae610191565b5b6103bb87828801610327565b925050606085015167ffffffffffffffff8111156103dc576103db610191565b5b6103e887828801610327565b91505092959194509250565b6103fd816101b6565b82525050565b600060208201905061041860008301846103f4565b92915050565b610fb88061042d6000396000f3fe608060405234801561001057600080fd5b50600436106100f55760003560e01c8063715018a611610097578063caee23ea11610066578063caee23ea1461023e578063ccca4e4d1461025a578063f25903f314610276578063f2fde38b146102a9576100f5565b8063715018a6146101dc5780637f9d8a03146101e65780638da5cb5b14610202578063aad94a7314610220576100f5565b806343522203116100d357806343522203146101645780635fa2c6271461018257806364ddc8e5146101a0578063661eac88146101be576100f5565b8063317e3e8d146100fa578063366de18e146101165780633cc1c51e14610146575b600080fd5b610114600480360381019061010f9190610c33565b6102c5565b005b610130600480360381019061012b9190610cae565b610402565b60405161013d9190610d10565b60405180910390f35b61014e61043e565b60405161015b9190610d3a565b60405180910390f35b61016c610443565b6040516101799190610d3a565b60405180910390f35b61018a610448565b6040516101979190610d3a565b60405180910390f35b6101a861044d565b6040516101b59190610d3a565b60405180910390f35b6101c6610452565b6040516101d39190610d3a565b60405180910390f35b6101e4610457565b005b61020060048036038101906101fb9190610dba565b61046b565b005b61020a6105a8565b6040516102179190610e29565b60405180910390f35b6102286105d1565b6040516102359190610d3a565b60405180910390f35b61025860048036038101906102539190610e7a565b6105d6565b005b610274600480360381019061026f9190610dba565b6107e0565b005b610290600480360381019061028b9190610ee1565b61091d565b6040516102a09493929190610f0e565b60405180910390f35b6102c360048036038101906102be9190610ee1565b610981565b005b6102cd610a07565b600360ff168460ff16111561030e576040517fd9426ded00000000000000000000000000000000000000000000000000000000815260040160405180910390fd5b60405180608001604052808560ff16815260200184151581526020018315158152602001821515815250600160008773ffffffffffffffffffffffffffffffffffffffff1673ffffffffffffffffffffffffffffffffffffffff16815260200190815260200160002060008201518160000160006101000a81548160ff021916908360ff16021790555060208201518160000160016101000a81548160ff02191690831515021790555060408201518160000160026101000a81548160ff02191690831515021790555060608201518160000160036101000a81548160ff0219169083151502179055509050505050505050565b6002602052826000526040600020602052816000526040600020602052806000526040600020600092509250509054906101000a900460ff1681565b600181565b600181565b600381565b600281565b600081565b61045f610a07565b6104696000610a8e565b565b610473610a07565b600160ff168360ff1611156104b4576040517f6d94a07d00000000000000000000000000000000000000000000000000000000815260040160405180910390fd5b60005b828290508110156105a2576001600260003373ffffffffffffffffffffffffffffffffffffffff1673ffffffffffffffffffffffffffffffffffffffff16815260200190815260200160002060008660ff1660ff168152602001908152602001600020600085858581811061052f5761052e610f53565b5b90506020020160208101906105449190610ee1565b73ffffffffffffffffffffffffffffffffffffffff1673ffffffffffffffffffffffffffffffffffffffff16815260200190815260200160002060006101000a81548160ff02191690831515021790555080806001019150506104b7565b50505050565b60008060009054906101000a900473ffffffffffffffffffffffffffffffffffffffff16905090565b600081565b6000600160003373ffffffffffffffffffffffffffffffffffffffff1673ffffffffffffffffffffffffffffffffffffffff1681526020019081526020016000206040518060800160405290816000820160009054906101000a900460ff1660ff1660ff1681526020016000820160019054906101000a900460ff161515151581526020016000820160029054906101000a900460ff161515151581526020016000820160039054906101000a900460ff1615151515815250509050600060ff16816000015160ff16036106aa57506107da565b6106b26105a8565b73ffffffffffffffffffffffffffffffffffffffff168473ffffffffffffffffffffffffffffffffffffffff161480156106f65750600360ff16816000015160ff16145b1561070157506107da565b600260003373ffffffffffffffffffffffffffffffffffffffff1673ffffffffffffffffffffffffffffffffffffffff16815260200190815260200160002060008060ff1660ff16815260200190815260200160002060008673ffffffffffffffffffffffffffffffffffffffff1673ffffffffffffffffffffffffffffffffffffffff16815260200190815260200160002060009054906101000a900460ff166107d8576040517fef28f90100000000000000000000000000000000000000000000000000000000815260040160405180910390fd5b505b50505050565b6107e8610a07565b600160ff168360ff161115610829576040517f6d94a07d00000000000000000000000000000000000000000000000000000000815260040160405180910390fd5b60005b82829050811015610917576000600260003373ffffffffffffffffffffffffffffffffffffffff1673ffffffffffffffffffffffffffffffffffffffff16815260200190815260200160002060008660ff1660ff16815260200190815260200160002060008585858181106108a4576108a3610f53565b5b90506020020160208101906108b99190610ee1565b73ffffffffffffffffffffffffffffffffffffffff1673ffffffffffffffffffffffffffffffffffffffff16815260200190815260200160002060006101000a81548160ff021916908315150217905550808060010191505061082c565b50505050565b60016020528060005260406000206000915090508060000160009054906101000a900460ff16908060000160019054906101000a900460ff16908060000160029054906101000a900460ff16908060000160039054906101000a900460ff16905084565b610989610a07565b600073ffffffffffffffffffffffffffffffffffffffff168173ffffffffffffffffffffffffffffffffffffffff16036109fb5760006040517f1e4fbdf70000000000000000000000000000000000000000000000000000000081526004016109f29190610e29565b60405180910390fd5b610a0481610a8e565b50565b610a0f610b52565b73ffffffffffffffffffffffffffffffffffffffff16610a2d6105a8565b73ffffffffffffffffffffffffffffffffffffffff1614610a8c57610a50610b52565b6040517f118cdaa7000000000000000000000000000000000000000000000000000000008152600401610a839190610e29565b60405180910390fd5b565b60008060009054906101000a900473ffffffffffffffffffffffffffffffffffffffff169050816000806101000a81548173ffffffffffffffffffffffffffffffffffffffff021916908373ffffffffffffffffffffffffffffffffffffffff1602179055508173ffffffffffffffffffffffffffffffffffffffff168173ffffffffffffffffffffffffffffffffffffffff167f8be0079c531659141344cd1fd0a4f28419497f9722a3daafe3b4186f6b6457e060405160405180910390a35050565b600033905090565b600080fd5b600080fd5b600073ffffffffffffffffffffffffffffffffffffffff82169050919050565b6000610b8f82610b64565b9050919050565b610b9f81610b84565b8114610baa57600080fd5b50565b600081359050610bbc81610b96565b92915050565b600060ff82169050919050565b610bd881610bc2565b8114610be357600080fd5b50565b600081359050610bf581610bcf565b92915050565b60008115159050919050565b610c1081610bfb565b8114610c1b57600080fd5b50565b600081359050610c2d81610c07565b92915050565b600080600080600060a08688031215610c4f57610c4e610b5a565b5b6000610c5d88828901610bad565b9550506020610c6e88828901610be6565b9450506040610c7f88828901610c1e565b9350506060610c9088828901610c1e565b9250506080610ca188828901610c1e565b9150509295509295909350565b600080600060608486031215610cc757610cc6610b5a565b5b6000610cd586828701610bad565b9350506020610ce686828701610be6565b9250506040610cf786828701610bad565b9150509250925092565b610d0a81610bfb565b82525050565b6000602082019050610d256000830184610d01565b92915050565b610d3481610bc2565b82525050565b6000602082019050610d4f6000830184610d2b565b92915050565b600080fd5b600080fd5b600080fd5b60008083601f840112610d7a57610d79610d55565b5b8235905067ffffffffffffffff811115610d9757610d96610d5a565b5b602083019150836020820283011115610db357610db2610d5f565b5b9250929050565b600080600060408486031215610dd357610dd2610b5a565b5b6000610de186828701610be6565b935050602084013567ffffffffffffffff811115610e0257610e01610b5f565b5b610e0e86828701610d64565b92509250509250925092565b610e2381610b84565b82525050565b6000602082019050610e3e6000830184610e1a565b92915050565b6000819050919050565b610e5781610e44565b8114610e6257600080fd5b50565b600081359050610e7481610e4e565b92915050565b60008060008060808587031215610e9457610e93610b5a565b5b6000610ea287828801610bad565b9450506020610eb387828801610bad565b9350506040610ec487828801610bad565b9250506060610ed587828801610e65565b91505092959194509250565b600060208284031215610ef757610ef6610b5a565b5b6000610f0584828501610bad565b91505092915050565b6000608082019050610f236000830187610d2b565b610f306020830186610d01565b610f3d6040830185610d01565b610f4a6060830184610d01565b95945050505050565b7f4e487b7100000000000000000000000000000000000000000000000000000000600052603260045260246000fdfea26469706673582212206c9ba6e6f4addfb116e631866b7a617a532de893953e186609d810985ff595e464736f6c634300081b0033",
  "linkReferences": {},
  "deployedLinkReferences": {}
}